{"abi":[{"type":"constructor","inputs":[],"stateMutability":"nonpayable"},{"type":"receive","stateMutability":"payable"},{"type":"function","name":"PROCESSING_DURATION","inputs":[],"outputs":[{"name":"","type":"uint256","internalType":"uint256"}],"stateMutability":"view"},{"type":"function","name":"activeAgents","inputs":[{"name":"","type":"uint256","internalType":"uint256"}],"outputs":[{"name":"","type":"address","internalType":"address"}],"stateMutability":"view"},{"type":"function","name":"addAgent","inputs":[{"name":"agent","type":"address","internalType":"address"}],"outputs":[],"stateMutability":"nonpayable"},{"type":"function","name":"agentData","inputs":[{"name":"","type":"address","internalType":"address"}],"outputs":[{"name":"feeRecipient","type":"address","internalType":"address"},{"name":"coreId","type":"uint256","internalType":"uint256"},{"name":"active","type":"bool","internalType":"bool"}],"stateMutability":"view"},{"type":"function","name":"calculateWinnings","inputs":[{"name":"roundId","type":"uint256","internalType":"uint256"},{"name":"user","type":"address","internalType":"address"}],"outputs":[{"name":"","type":"uint256","internalType":"uint256"}],"stateMutability":"view"},{"type":"function","name":"claimWinnings","inputs":[{"name":"roundId","type":"uint256","internalType":"uint256"}],"outputs":[],"stateMutability":"nonpayable"},{"type":"function","name":"core","inputs":[],"outputs":[{"name":"","type":"address","internalType":"address payable"}],"stateMutability":"view"},{"type":"function","name":"creator","inputs":[],"outputs":[{"name":"","type":"address","internalType":"address"}],"stateMutability":"view"},{"type":"function","name":"currentAgentCount","inputs":[],"outputs":[{"name":"","type":"uint32","internalType":"uint32"}],"stateMutability":"view"},{"type":"function","name":"currentRoundId","inputs":[],"outputs":[{"name":"","type":"uint256","internalType":"uint256"}],"stateMutability":"view"},{"type":"function","name":"feeBalance","inputs":[],"outputs":[{"name":"","type":"uint256","internalType":"uint256"}],"stateMutability":"view"},{"type":"function","name":"fees","inputs":[],"outputs":[{"name":"roomEntryFee","type":"uint256","internalType":"uint256"}],"stateMutability":"view"},{"type":"function","name":"gameMaster","inputs":[],"outputs":[{"name":"","type":"address","internalType":"address"}],"stateMutability":"view"},{"type":"function","name":"getAgentPosition","inputs":[{"name":"roundId","type":"uint256","internalType":"uint256"},{"name":"agent","type":"address","internalType":"address"}],"outputs":[{"name":"","type":"tuple","internalType":"struct Room.AgentPosition","components":[{"name":"buyPool","type":"uint256","internalType":"uint256"},{"name":"hold","type":"uint256","internalType":"uint256"},{"name":"sell","type":"uint256","internalType":"uint256"},{"name":"decision","type":"uint8","internalType":"enum Room.BetType"},{"name":"hasDecided","type":"bool","internalType":"bool"}]}],"stateMutability":"view"},{"type":"function","name":"getHasClaimedWinnings","inputs":[{"name":"roundId","type":"uint256","internalType":"uint256"},{"name":"user","type":"address","internalType":"address"}],"outputs":[{"name":"","type":"bool","internalType":"bool"}],"stateMutability":"view"},{"type":"function","name":"getPvpStatuses","inputs":[{"name":"roundId","type":"uint256","internalType":"uint256"},{"name":"agent","type":"address","internalType":"address"}],"outputs":[{"name":"","type":"tuple[]","internalType":"struct Room.PvpStatus[]","components":[{"name":"verb","type":"string","internalType":"string"},{"name":"instigator","type":"address","internalType":"address"},{"name":"endTime","type":"uint40","internalType":"uint40"},{"name":"parameters","type":"bytes","internalType":"bytes"}]}],"stateMutability":"view"},{"type":"function","name":"getRoomFees","inputs":[],"outputs":[{"name":"","type":"tuple","internalType":"struct Room.RoomFees","components":[{"name":"roomEntryFee","type":"uint256","internalType":"uint256"}]}],"stateMutability":"view"},{"type":"function","name":"getRoundEndTime","inputs":[{"name":"roundId","type":"uint256","internalType":"uint256"}],"outputs":[{"name":"","type":"uint40","internalType":"uint40"}],"stateMutability":"view"},{"type":"function","name":"getRoundStartTime","inputs":[{"name":"roundId","type":"uint256","internalType":"uint256"}],"outputs":[{"name":"","type":"uint40","internalType":"uint40"}],"stateMutability":"view"},{"type":"function","name":"getRoundState","inputs":[{"name":"roundId","type":"uint256","internalType":"uint256"}],"outputs":[{"name":"","type":"uint8","internalType":"enum Room.RoundState"}],"stateMutability":"view"},{"type":"function","name":"getUserBet","inputs":[{"name":"roundId","type":"uint256","internalType":"uint256"},{"name":"user","type":"address","internalType":"address"}],"outputs":[{"name":"","type":"tuple","internalType":"struct Room.UserBet","components":[{"name":"bettype","type":"uint8","internalType":"enum Room.BetType"},{"name":"amount","type":"uint256","internalType":"uint256"},{"name":"refunded","type":"bool","internalType":"bool"}]}],"stateMutability":"view"},{"type":"function","name":"initialize","inputs":[{"name":"_gameMaster","type":"address","internalType":"address"},{"name":"_token","type":"address","internalType":"address"},{"name":"_creator","type":"address","internalType":"address"},{"name":"_core","type":"address","internalType":"address"},{"name":"_roomEntryFee","type":"uint256","internalType":"uint256"},{"name":"_initialAgents","type":"address[]","internalType":"address[]"},{"name":"_initialAgentFeeRecipients","type":"address[]","internalType":"address[]"},{"name":"_initialAgentIds","type":"uint256[]","internalType":"uint256[]"}],"outputs":[],"stateMutability":"nonpayable"},{"type":"function","name":"invokePvpAction","inputs":[{"name":"target","type":"address","internalType":"address"},{"name":"verb","type":"string","internalType":"string"},{"name":"parameters","type":"bytes","internalType":"bytes"}],"outputs":[],"stateMutability":"payable"},{"type":"function","name":"maxAgents","inputs":[],"outputs":[{"name":"","type":"uint32","internalType":"uint32"}],"stateMutability":"view"},{"type":"function","name":"owner","inputs":[],"outputs":[{"name":"","type":"address","internalType":"address"}],"stateMutability":"view"},{"type":"function","name":"placeBet","inputs":[{"name":"agent","type":"address","internalType":"address"},{"name":"betType","type":"uint8","internalType":"enum Room.BetType"},{"name":"amount","type":"uint256","internalType":"uint256"}],"outputs":[],"stateMutability":"payable"},{"type":"function","name":"pvpEnabled","inputs":[],"outputs":[{"name":"","type":"bool","internalType":"bool"}],"stateMutability":"view"},{"type":"function","name":"removeAgent","inputs":[{"name":"agent","type":"address","internalType":"address"}],"outputs":[],"stateMutability":"nonpayable"},{"type":"function","name":"renounceOwnership","inputs":[],"outputs":[],"stateMutability":"nonpayable"},{"type":"function","name":"resolveMarket","inputs":[],"outputs":[],"stateMutability":"nonpayable"},{"type":"function","name":"roundDuration","inputs":[],"outputs":[{"name":"","type":"uint40","internalType":"uint40"}],"stateMutability":"view"},{"type":"function","name":"rounds","inputs":[{"name":"","type":"uint256","internalType":"uint256"}],"outputs":[{"name":"state","type":"uint8","internalType":"enum Room.RoundState"},{"name":"startTime","type":"uint40","internalType":"uint40"},{"name":"endTime","type":"uint40","internalType":"uint40"},{"name":"totalFees","type":"uint256","internalType":"uint256"},{"name":"totalBetsBuy","type":"uint256","internalType":"uint256"},{"name":"totalBetsHold","type":"uint256","internalType":"uint256"},{"name":"totalBetsSell","type":"uint256","internalType":"uint256"}],"stateMutability":"view"},{"type":"function","name":"setCurrentRoundState","inputs":[{"name":"newState","type":"uint8","internalType":"enum Room.RoundState"}],"outputs":[],"stateMutability":"nonpayable"},{"type":"function","name":"startRound","inputs":[],"outputs":[],"stateMutability":"nonpayable"},{"type":"function","name":"submitAgentDecision","inputs":[{"name":"agent","type":"address","internalType":"address"},{"name":"decision","type":"uint8","internalType":"enum Room.BetType"}],"outputs":[],"stateMutability":"nonpayable"},{"type":"function","name":"supportedPvpActions","inputs":[{"name":"","type":"string","internalType":"string"}],"outputs":[{"name":"verb","type":"string","internalType":"string"},{"name":"category","type":"uint8","internalType":"enum Room.PvpActionCategory"},{"name":"fee","type":"uint256","internalType":"uint256"},{"name":"duration","type":"uint32","internalType":"uint32"}],"stateMutability":"view"},{"type":"function","name":"supportedPvpVerbs","inputs":[{"name":"","type":"uint256","internalType":"uint256"}],"outputs":[{"name":"","type":"string","internalType":"string"}],"stateMutability":"view"},{"type":"function","name":"token","inputs":[],"outputs":[{"name":"","type":"address","internalType":"address"}],"stateMutability":"view"},{"type":"function","name":"transferOwnership","inputs":[{"name":"newOwner","type":"address","internalType":"address"}],"outputs":[],"stateMutability":"nonpayable"},{"type":"function","name":"updateFees","inputs":[{"name":"roomEntryFee","type":"uint256","internalType":"uint256"}],"outputs":[],"stateMutability":"nonpayable"},{"type":"function","name":"updateRoundDuration","inputs":[{"name":"newDuration","type":"uint40","internalType":"uint40"}],"outputs":[],"stateMutability":"nonpayable"},{"type":"function","name":"updateSupportedPvpActions","inputs":[{"name":"verb","type":"string","internalType":"string"},{"name":"category","type":"uint8","internalType":"enum Room.PvpActionCategory"},{"name":"fee","type":"uint256","internalType":"uint256"},{"name":"duration","type":"uint32","internalType":"uint32"}],"outputs":[],"stateMutability":"nonpayable"},{"type":"event","name":"AgentAdded","inputs":[{"name":"agent","type":"address","indexed":true,"internalType":"address"}],"anonymous":false},{"type":"event","name":"AgentDecisionSubmitted","inputs":[{"name":"roundId","type":"uint256","indexed":true,"internalType":"uint256"},{"name":"agent","type":"address","indexed":false,"internalType":"address"},{"name":"betType","type":"uint8","indexed":false,"internalType":"enum Room.BetType"}],"anonymous":false},{"type":"event","name":"AgentRemoved","inputs":[{"name":"agent","type":"address","indexed":true,"internalType":"address"}],"anonymous":false},{"type":"event","name":"BetPlaced","inputs":[{"name":"user","type":"address","indexed":true,"internalType":"address"},{"name":"roundId","type":"uint256","indexed":true,"internalType":"uint256"},{"name":"agent","type":"address","indexed":true,"internalType":"address"},{"name":"betType","type":"uint8","indexed":false,"internalType":"enum Room.BetType"},{"name":"amount","type":"uint256","indexed":false,"internalType":"uint256"}],"anonymous":false},{"type":"event","name":"FeesDistributed","inputs":[{"name":"roundId","type":"uint256","indexed":true,"internalType":"uint256"}],"anonymous":false},{"type":"event","name":"FeesUpdated","inputs":[{"name":"roomEntryFee","type":"uint256","indexed":false,"internalType":"uint256"}],"anonymous":false},{"type":"event","name":"JoinedRoom","inputs":[{"name":"user","type":"address","indexed":true,"internalType":"address"},{"name":"roundId","type":"uint256","indexed":true,"internalType":"uint256"}],"anonymous":false},{"type":"event","name":"MarketResolved","inputs":[{"name":"roundId","type":"uint256","indexed":true,"internalType":"uint256"}],"anonymous":false},{"type":"event","name":"OwnershipTransferred","inputs":[{"name":"previousOwner","type":"address","indexed":true,"internalType":"address"},{"name":"newOwner","type":"address","indexed":true,"internalType":"address"}],"anonymous":false},{"type":"event","name":"PvpActionInvoked","inputs":[{"name":"verb","type":"string","indexed":true,"internalType":"string"},{"name":"target","type":"address","indexed":true,"internalType":"address"},{"name":"endTime","type":"uint40","indexed":false,"internalType":"uint40"},{"name":"parameters","type":"bytes","indexed":false,"internalType":"bytes"}],"anonymous":false},{"type":"event","name":"PvpActionRemoved","inputs":[{"name":"verb","type":"string","indexed":true,"internalType":"string"}],"anonymous":false},{"type":"event","name":"PvpActionsUpdated","inputs":[{"name":"verb","type":"string","indexed":true,"internalType":"string"},{"name":"category","type":"uint8","indexed":true,"internalType":"enum Room.PvpActionCategory"},{"name":"fee","type":"uint256","indexed":false,"internalType":"uint256"},{"name":"duration","type":"uint32","indexed":false,"internalType":"uint32"},{"name":"isNew","type":"bool","indexed":false,"internalType":"bool"},{"name":"isUpdate","type":"bool","indexed":false,"internalType":"bool"}],"anonymous":false},{"type":"event","name":"RoundDurationUpdated","inputs":[{"name":"oldDuration","type":"uint40","indexed":false,"internalType":"uint40"},{"name":"newDuration","type":"uint40","indexed":false,"internalType":"uint40"}],"anonymous":false},{"type":"event","name":"RoundStarted","inputs":[{"name":"roundId","type":"uint256","indexed":true,"internalType":"uint256"},{"name":"startTime","type":"uint40","indexed":false,"internalType":"uint40"},{"name":"endTime","type":"uint40","indexed":false,"internalType":"uint40"}],"anonymous":false},{"type":"event","name":"RoundStateUpdated","inputs":[{"name":"currentRoundId","type":"uint256","indexed":true,"internalType":"uint256"},{"name":"state","type":"uint8","indexed":false,"internalType":"enum Room.RoundState"}],"anonymous":false},{"type":"event","name":"WinningsClaimed","inputs":[{"name":"roundId","type":"uint256","indexed":true,"internalType":"uint256"},{"name":"user","type":"address","indexed":true,"internalType":"address"},{"name":"winnings","type":"uint256","indexed":false,"internalType":"uint256"}],"anonymous":false},{"type":"error","name":"OwnableInvalidOwner","inputs":[{"name":"owner","type":"address","internalType":"address"}]},{"type":"error","name":"OwnableUnauthorizedAccount","inputs":[{"name":"account","type":"address","internalType":"address"}]},{"type":"error","name":"ReentrancyGuardReentrantCall","inputs":[]},{"type":"error","name":"Room_ActionNotSupported","inputs":[]},{"type":"error","name":"Room_AgentAlreadyDecided","inputs":[]},{"type":"error","name":"Room_AgentAlreadyExists","inputs":[]},{"type":"error","name":"Room_AgentNotActive","inputs":[{"name":"agent","type":"address","internalType":"address"}]},{"type":"error","name":"Room_AgentNotExists","inputs":[{"name":"agent","type":"address","internalType":"address"}]},{"type":"error","name":"Room_InvalidAmount","inputs":[]},{"type":"error","name":"Room_InvalidBetType","inputs":[]},{"type":"error","name":"Room_InvalidFee","inputs":[]},{"type":"error","name":"Room_InvalidPvpAction","inputs":[]},{"type":"error","name":"Room_InvalidRoundDuration","inputs":[]},{"type":"error","name":"Room_MaxAgentsReached","inputs":[]},{"type":"error","name":"Room_NoWinnings","inputs":[]},{"type":"error","name":"Room_NotAuthorized","inputs":[]},{"type":"error","name":"Room_NotCreator","inputs":[]},{"type":"error","name":"Room_NotGameMaster","inputs":[]},{"type":"error","name":"Room_NotGameMasterOrCreator","inputs":[]},{"type":"error","name":"Room_RoundNotClosed","inputs":[{"name":"currentRoundId","type":"uint256","internalType":"uint256"}]},{"type":"error","name":"Room_RoundNotExpectedStatus","inputs":[{"name":"expected","type":"uint8","internalType":"enum Room.RoundState"},{"name":"actual","type":"uint8","internalType":"enum Room.RoundState"}]},{"type":"error","name":"Room_SenderAlreadyClaimedWinnings","inputs":[]},{"type":"error","name":"Room_SenderHasNoBetInRound","inputs":[]},{"type":"error","name":"Room_StatusEffectAlreadyActive","inputs":[{"name":"verb","type":"string","internalType":"string"},{"name":"target","type":"address","internalType":"address"},{"name":"endTime","type":"uint40","internalType":"uint40"}]},{"type":"error","name":"Room_TransferFailed","inputs":[]},{"type":"error","name":"Room__AlreadyInitialized","inputs":[]}],"bytecode":{"object":"0x60806040526005600a5f6101000a81548163ffffffff021916908363ffffffff1602179055505f600a60046101000a81548163ffffffff021916908363ffffffff160217905550600a8060086101000a81548164ffffffffff021916908364ffffffffff1602179055506001600b553480156200007a575f80fd5b50335f73ffffffffffffffffffffffffffffffffffffffff168173ffffffffffffffffffffffffffffffffffffffff1603620000ef575f6040517f1e4fbdf7000000000000000000000000000000000000000000000000000000008152600401620000e6919062000212565b60405180910390fd5b62000100816200010e60201b60201c565b50600180819055506200022d565b5f805f9054906101000a900473ffffffffffffffffffffffffffffffffffffffff169050815f806101000a81548173ffffffffffffffffffffffffffffffffffffffff021916908373ffffffffffffffffffffffffffffffffffffffff1602179055508173ffffffffffffffffffffffffffffffffffffffff168173ffffffffffffffffffffffffffffffffffffffff167f8be0079c531659141344cd1fd0a4f28419497f9722a3daafe3b4186f6b6457e060405160405180910390a35050565b5f73ffffffffffffffffffffffffffffffffffffffff82169050919050565b5f620001fa82620001cf565b9050919050565b6200020c81620001ee565b82525050565b5f602082019050620002275f83018462000201565b92915050565b615ceb806200023b5f395ff3fe608060405260043610610254575f3560e01c80637592d54111610138578063bdf84ae7116100b5578063ddc6ac2311610079578063ddc6ac23146108ae578063f15cc406146108ea578063f2f4eb2614610926578063f2fde38b14610950578063f7cb789a14610978578063fc0c546a146109a25761025b565b8063bdf84ae7146107a6578063be60ae31146107d0578063c03fb87c146107fa578063c642e7bf14610836578063d0ed7460146108725761025b565b80638da5cb5b116100fc5780638da5cb5b146106d657806397a6278e14610700578063995982ec146107285780639af1d35a146107525780639cbe5efd1461077c5761025b565b80637592d541146105cc57806378dacee1146106085780637d4510d91461063057806384e798421461066c5780638c65c81f146106945761025b565b80632b9b55b3116101d1578063520d5e2511610195578063520d5e25146104f657806355e3f0861461053257806360b71d4e1461054857806364e0fb2714610572578063677bd9ff1461058e578063715018a6146105b65761025b565b80632b9b55b3146104285780632f88d7ba1461043e5780634245d5f01461047c5780634b961e76146104a45780634d2a7941146104ce5761025b565b806312b19a131161021857806312b19a13146103445780631602009a146103805780631a086bd0146103a85780631dc5670d146103c4578063263485cb146104005761025b565b806302d05d3f1461025f578063054bb1861461028957806305c83d30146102c85780630a34d637146102f25780630cc8cbd41461031c5761025b565b3661025b57005b5f80fd5b34801561026a575f80fd5b506102736109cc565b604051610280919061434b565b60405180910390f35b348015610294575f80fd5b506102af60048036038101906102aa91906144b1565b6109f1565b6040516102bf949392919061461b565b60405180910390f35b3480156102d3575f80fd5b506102dc610ad6565b6040516102e99190614665565b60405180910390f35b3480156102fd575f80fd5b50610306610adc565b604051610313919061467e565b60405180910390f35b348015610327575f80fd5b50610342600480360381019061033d919061470e565b610af1565b005b34801561034f575f80fd5b5061036a6004803603810190610365919061478e565b610db5565b60405161037791906147d8565b60405180910390f35b34801561038b575f80fd5b506103a660048036038101906103a19190614814565b610de2565b005b6103c260048036038101906103bd9190614907565b610ee6565b005b3480156103cf575f80fd5b506103ea60048036038101906103e5919061498f565b611670565b6040516103f791906149e7565b60405180910390f35b34801561040b575f80fd5b5061042660048036038101906104219190614b84565b6116d5565b005b348015610433575f80fd5b5061043c611a46565b005b348015610449575f80fd5b50610464600480360381019061045f9190614c89565b611ac4565b60405161047393929190614cb4565b60405180910390f35b348015610487575f80fd5b506104a2600480360381019061049d9190614d13565b611b15565b005b3480156104af575f80fd5b506104b8611c54565b6040516104c5919061467e565b60405180910390f35b3480156104d9575f80fd5b506104f460048036038101906104ef9190614d61565b611c6a565b005b348015610501575f80fd5b5061051c6004803603810190610517919061478e565b611f5b565b604051610529919061434b565b60405180910390f35b34801561053d575f80fd5b50610546611f96565b005b348015610553575f80fd5b5061055c612148565b6040516105699190614665565b60405180910390f35b61058c60048036038101906105879190614d9f565b61214e565b005b348015610599575f80fd5b506105b460048036038101906105af919061478e565b612810565b005b3480156105c1575f80fd5b506105ca612b69565b005b3480156105d7575f80fd5b506105f260048036038101906105ed919061478e565b612b7c565b6040516105ff9190614def565b60405180910390f35b348015610613575f80fd5b5061062e6004803603810190610629919061478e565b612c22565b005b34801561063b575f80fd5b506106566004803603810190610651919061498f565b612cfe565b6040516106639190614ed9565b60405180910390f35b348015610677575f80fd5b50610692600480360381019061068d9190614c89565b612dda565b005b34801561069f575f80fd5b506106ba60048036038101906106b5919061478e565b613079565b6040516106cd9796959493929190614f38565b60405180910390f35b3480156106e1575f80fd5b506106ea6130e3565b6040516106f7919061434b565b60405180910390f35b34801561070b575f80fd5b5061072660048036038101906107219190614c89565b61310a565b005b348015610733575f80fd5b5061073c61351e565b60405161074991906149e7565b60405180910390f35b34801561075d575f80fd5b50610766613530565b6040516107739190614665565b60405180910390f35b348015610787575f80fd5b5061079061353b565b60405161079d9190614665565b60405180910390f35b3480156107b1575f80fd5b506107ba613541565b6040516107c7919061434b565b60405180910390f35b3480156107db575f80fd5b506107e4613566565b6040516107f19190614fbf565b60405180910390f35b348015610805575f80fd5b50610820600480360381019061081b919061498f565b613589565b60405161082d9190615018565b60405180910390f35b348015610841575f80fd5b5061085c6004803603810190610857919061478e565b613650565b6040516108699190615031565b60405180910390f35b34801561087d575f80fd5b506108986004803603810190610893919061498f565b613678565b6040516108a59190615224565b60405180910390f35b3480156108b9575f80fd5b506108d460048036038101906108cf919061478e565b6138c1565b6040516108e191906147d8565b60405180910390f35b3480156108f5575f80fd5b50610910600480360381019061090b919061498f565b6138ee565b60405161091d9190614665565b60405180910390f35b348015610931575f80fd5b5061093a613b25565b6040516109479190615264565b60405180910390f35b34801561095b575f80fd5b5061097660048036038101906109719190614c89565b613b4a565b005b348015610983575f80fd5b5061098c613bce565b60405161099991906147d8565b60405180910390f35b3480156109ad575f80fd5b506109b6613be5565b6040516109c3919061434b565b60405180910390f35b60075f9054906101000a900473ffffffffffffffffffffffffffffffffffffffff1681565b6010818051602081018201805184825260208301602085012081835280955050505050505f91509050805f018054610a28906152aa565b80601f0160208091040260200160405190810160405280929190818152602001828054610a54906152aa565b8015610a9f5780601f10610a7657610100808354040283529160200191610a9f565b820191905f5260205f20905b815481529060010190602001808311610a8257829003601f168201915b505050505090806001015f9054906101000a900460ff1690806002015490806003015f9054906101000a900463ffffffff16905084565b600b5481565b600a5f9054906101000a900463ffffffff1681565b60055f9054906101000a900473ffffffffffffffffffffffffffffffffffffffff1673ffffffffffffffffffffffffffffffffffffffff163373ffffffffffffffffffffffffffffffffffffffff1614158015610b9b575060075f9054906101000a900473ffffffffffffffffffffffffffffffffffffffff1673ffffffffffffffffffffffffffffffffffffffff163373ffffffffffffffffffffffffffffffffffffffff1614155b15610bd2576040517f433ba2d500000000000000000000000000000000000000000000000000000000815260040160405180910390fd5b5f604051602001610be290615307565b60405160208183030381529060405280519060200120601086604051610c08919061534b565b90815260200160405180910390205f01604051602001610c2891906153f3565b604051602081830303815290604052805190602001201490506040518060800160405280868152602001856003811115610c6557610c64614572565b5b81526020018481526020018363ffffffff16815250601086604051610c8a919061534b565b90815260200160405180910390205f820151815f019081610cab9190615594565b506020820151816001015f6101000a81548160ff02191690836003811115610cd657610cd5614572565b5b0217905550604082015181600201556060820151816003015f6101000a81548163ffffffff021916908363ffffffff1602179055509050508015610d4757601185908060018154018082558091505060019003905f5260205f20015f909190919091509081610d459190615594565b505b836003811115610d5a57610d59614572565b5b85604051610d68919061534b565b60405180910390207f9caf52b95ab86b68fe3e10e87243b904a71abef70d46ba04f4382c85406332218585858615604051610da69493929190615663565b60405180910390a35050505050565b5f600d5f8381526020019081526020015f205f0160069054906101000a900464ffffffffff169050919050565b60055f9054906101000a900473ffffffffffffffffffffffffffffffffffffffff1673ffffffffffffffffffffffffffffffffffffffff163373ffffffffffffffffffffffffffffffffffffffff1614610e68576040517ff953825e00000000000000000000000000000000000000000000000000000000815260040160405180910390fd5b5f600d5f60085481526020019081526020015f20905081815f015f6101000a81548160ff02191690836003811115610ea357610ea2614572565b5b02179055506008547f5c8a99681bc622d59d60c72ee772a4b3ad289cba816b69f0015522c426fbc61883604051610eda9190615031565b60405180910390a25050565b61010081511115610f23576040517f3fa5794000000000000000000000000000000000000000000000000000000000815260040160405180910390fd5b5f600d5f60085481526020019081526020015f20905060016003811115610f4d57610f4c614572565b5b815f015f9054906101000a900460ff166003811115610f6f57610f6e614572565b5b14610fc3576001815f015f9054906101000a900460ff166040517fb91335c4000000000000000000000000000000000000000000000000000000008152600401610fba9291906156a6565b60405180910390fd5b600c5f9054906101000a900460ff16611055576110236040518060400160405280600f81526020017f5076502069732064697361626c65640000000000000000000000000000000000815250600c5f9054906101000a900460ff16613c0a565b6040517f4205010600000000000000000000000000000000000000000000000000000000815260040160405180910390fd5b5f601084604051611066919061534b565b90815260200160405180910390206040518060800160405290815f8201805461108e906152aa565b80601f01602080910402602001604051908101604052809291908181526020018280546110ba906152aa565b80156111055780601f106110dc57610100808354040283529160200191611105565b820191905f5260205f20905b8154815290600101906020018083116110e857829003601f168201915b50505050508152602001600182015f9054906101000a900460ff16600381111561113257611131614572565b5b600381111561114457611143614572565b5b815260200160028201548152602001600382015f9054906101000a900463ffffffff1663ffffffff1663ffffffff1681525050905060405160200161118890615307565b60405160208183030381529060405280519060200120815f01516040516020016111b2919061534b565b60405160208183030381529060405280519060200120036111ff576040517f3fa5794000000000000000000000000000000000000000000000000000000000815260040160405180910390fd5b8060400151341461123c576040517fe159ab8a00000000000000000000000000000000000000000000000000000000815260040160405180910390fd5b5f826008015f8773ffffffffffffffffffffffffffffffffffffffff1673ffffffffffffffffffffffffffffffffffffffff1681526020019081526020015f2090505f80805f90505b83805490508110156113e057876040516020016112a2919061534b565b604051602081830303815290604052805190602001208482815481106112cb576112ca6156cd565b5b905f5260205f2090600302015f016040516020016112e991906153f3565b60405160208183030381529060405280519060200120036113cd57600192504264ffffffffff16848281548110611323576113226156cd565b5b905f5260205f20906003020160010160149054906101000a900464ffffffffff1664ffffffffff1611156113c5578789858381548110611366576113656156cd565b5b905f5260205f20906003020160010160149054906101000a900464ffffffffff166040517fbd4a123d0000000000000000000000000000000000000000000000000000000081526004016113bc939291906156fa565b60405180910390fd5b8091506113e0565b80806113d890615763565b915050611285565b505f846060015163ffffffff16426113f891906157aa565b905082156114fe5760405180608001604052808981526020013373ffffffffffffffffffffffffffffffffffffffff1681526020018264ffffffffff16815260200188815250848381548110611451576114506156cd565b5b905f5260205f2090600302015f820151815f0190816114709190615594565b506020820151816001015f6101000a81548173ffffffffffffffffffffffffffffffffffffffff021916908373ffffffffffffffffffffffffffffffffffffffff16021790555060408201518160010160146101000a81548164ffffffffff021916908364ffffffffff16021790555060608201518160020190816114f59190615835565b509050506115ff565b8360405180608001604052808a81526020013373ffffffffffffffffffffffffffffffffffffffff1681526020018364ffffffffff16815260200189815250908060018154018082558091505060019003905f5260205f2090600302015f909190919091505f820151815f0190816115769190615594565b506020820151816001015f6101000a81548173ffffffffffffffffffffffffffffffffffffffff021916908373ffffffffffffffffffffffffffffffffffffffff16021790555060408201518160010160146101000a81548164ffffffffff021916908364ffffffffff16021790555060608201518160020190816115fb9190615835565b5050505b8873ffffffffffffffffffffffffffffffffffffffff1688604051611624919061534b565b60405180910390207f9a3f7bc2c58e100dba3994bdf8854c457b542d732ef307f104ded4de8e7dad5e838a60405161165d92919061594c565b60405180910390a3505050505050505050565b5f600d5f8481526020019081526020015f206007015f8373ffffffffffffffffffffffffffffffffffffffff1673ffffffffffffffffffffffffffffffffffffffff1681526020019081526020015f205f9054906101000a900460ff16905092915050565b60125f9054906101000a900460ff161561171b576040517fab1905f300000000000000000000000000000000000000000000000000000000815260040160405180910390fd5b8760055f6101000a81548173ffffffffffffffffffffffffffffffffffffffff021916908373ffffffffffffffffffffffffffffffffffffffff1602179055508660065f6101000a81548173ffffffffffffffffffffffffffffffffffffffff021916908373ffffffffffffffffffffffffffffffffffffffff1602179055508560075f6101000a81548173ffffffffffffffffffffffffffffffffffffffff021916908373ffffffffffffffffffffffffffffffffffffffff1602179055508460025f6101000a81548173ffffffffffffffffffffffffffffffffffffffff021916908373ffffffffffffffffffffffffffffffffffffffff16021790555060405180602001604052808581525060035f820151815f01559050506001600c5f6101000a81548160ff0219169083151502179055505f5b83518110156119df57604051806060016040528084838151811061187a576118796156cd565b5b602002602001015173ffffffffffffffffffffffffffffffffffffffff1681526020018383815181106118b0576118af6156cd565b5b6020026020010151815260200160011515815250600e5f8684815181106118da576118d96156cd565b5b602002602001015173ffffffffffffffffffffffffffffffffffffffff1673ffffffffffffffffffffffffffffffffffffffff1681526020019081526020015f205f820151815f015f6101000a81548173ffffffffffffffffffffffffffffffffffffffff021916908373ffffffffffffffffffffffffffffffffffffffff160217905550602082015181600101556040820151816002015f6101000a81548160ff021916908315150217905550905050600a600481819054906101000a900463ffffffff16809291906119ad9061597a565b91906101000a81548163ffffffff021916908363ffffffff1602179055505080806119d790615763565b915050611853565b50600160125f6101000a81548160ff0219169083151502179055505f600d5f60085481526020019081526020015f2090506001815f015f6101000a81548160ff02191690836003811115611a3657611a35614572565b5b0217905550505050505050505050565b5f600d5f60085481526020019081526020015f209050611a67600854613ca6565b6003815f015f6101000a81548160ff02191690836003811115611a8d57611a8c614572565b5b02179055506008547f93608ecbcf057462da63f5aef413ce7f78c5e1b3bb51859d77a40845ece2bfc360405160405180910390a250565b600e602052805f5260405f205f91509050805f015f9054906101000a900473ffffffffffffffffffffffffffffffffffffffff1690806001015490806002015f9054906101000a900460ff16905083565b60075f9054906101000a900473ffffffffffffffffffffffffffffffffffffffff1673ffffffffffffffffffffffffffffffffffffffff163373ffffffffffffffffffffffffffffffffffffffff1614611b9b576040517f0196529900000000000000000000000000000000000000000000000000000000815260040160405180910390fd5b5f600a60089054906101000a900464ffffffffff169050600a8264ffffffffff161015611bf4576040517f2f6b4e7a00000000000000000000000000000000000000000000000000000000815260040160405180910390fd5b81600a60086101000a81548164ffffffffff021916908364ffffffffff1602179055507fc3214c3dd3810a0cf3a56a5188663156303bc4941f34d41eeb3d59a49d53e1d88183604051611c489291906159a5565b60405180910390a15050565b600a60049054906101000a900463ffffffff1681565b60055f9054906101000a900473ffffffffffffffffffffffffffffffffffffffff1673ffffffffffffffffffffffffffffffffffffffff163373ffffffffffffffffffffffffffffffffffffffff1614611cf0576040517ff953825e00000000000000000000000000000000000000000000000000000000815260040160405180910390fd5b5f6004811115611d0357611d02614572565b5b816004811115611d1657611d15614572565b5b03611d4d576040517f7a9e27a200000000000000000000000000000000000000000000000000000000815260040160405180910390fd5b60055f9054906101000a900473ffffffffffffffffffffffffffffffffffffffff1673ffffffffffffffffffffffffffffffffffffffff163373ffffffffffffffffffffffffffffffffffffffff1614611dd3576040517f0293ac4d00000000000000000000000000000000000000000000000000000000815260040160405180910390fd5b600480811115611de657611de5614572565b5b816004811115611df957611df8614572565b5b03611e30576040517ff953825e00000000000000000000000000000000000000000000000000000000815260040160405180910390fd5b5f600d5f60085481526020019081526020015f2090505f816006015f8573ffffffffffffffffffffffffffffffffffffffff1673ffffffffffffffffffffffffffffffffffffffff1681526020019081526020015f2090508060030160019054906101000a900460ff1615611ed1576040517fe7712cf500000000000000000000000000000000000000000000000000000000815260040160405180910390fd5b82816003015f6101000a81548160ff02191690836004811115611ef757611ef6614572565b5b021790555060018160030160016101000a81548160ff0219169083151502179055506008547f334c88bccde74f5b50d93ab8a27c0191054e5a18419a1a8bc98aafe5d290100b8585604051611f4d9291906159db565b60405180910390a250505050565b60098181548110611f6a575f80fd5b905f5260205f20015f915054906101000a900473ffffffffffffffffffffffffffffffffffffffff1681565b60055f9054906101000a900473ffffffffffffffffffffffffffffffffffffffff1673ffffffffffffffffffffffffffffffffffffffff163373ffffffffffffffffffffffffffffffffffffffff161461201c576040517ff953825e00000000000000000000000000000000000000000000000000000000815260040160405180910390fd5b60085f81548092919061202e90615763565b91905055505f600d5f60085481526020019081526020015f20905042815f0160016101000a81548164ffffffffff021916908364ffffffffff160217905550600a60089054906101000a900464ffffffffff1664ffffffffff164261209391906157aa565b815f0160066101000a81548164ffffffffff021916908364ffffffffff1602179055506001815f015f6101000a81548160ff021916908360038111156120dc576120db614572565b5b02179055506008547f15b9e5266d8603010d5881085e583c49c7b2420c2a5e498c36d1e86a9b92a441825f0160019054906101000a900464ffffffffff16835f0160069054906101000a900464ffffffffff1660405161213d9291906159a5565b60405180910390a250565b60045481565b61215661409e565b60048081111561216957612168614572565b5b82600481111561217c5761217b614572565b5b14806121ab57505f600481111561219657612195614572565b5b8260048111156121a9576121a8614572565b5b145b156121e2576040517f7a9e27a200000000000000000000000000000000000000000000000000000000815260040160405180910390fd5b5f600d5f60085481526020019081526020015f2090506001600381111561220c5761220b614572565b5b815f015f9054906101000a900460ff16600381111561222e5761222d614572565b5b14612282576001815f015f9054906101000a900460ff166040517fb91335c40000000000000000000000000000000000000000000000000000000081526004016122799291906156a6565b60405180910390fd5b5f73ffffffffffffffffffffffffffffffffffffffff16600e5f8673ffffffffffffffffffffffffffffffffffffffff1673ffffffffffffffffffffffffffffffffffffffff1681526020019081526020015f205f015f9054906101000a900473ffffffffffffffffffffffffffffffffffffffff1673ffffffffffffffffffffffffffffffffffffffff160361235057836040517fc1370d94000000000000000000000000000000000000000000000000000000008152600401612347919061434b565b60405180910390fd5b5f8211612389576040517fe159ab8a00000000000000000000000000000000000000000000000000000000815260040160405180910390fd5b5f816005015f3373ffffffffffffffffffffffffffffffffffffffff1673ffffffffffffffffffffffffffffffffffffffff1681526020019081526020015f2090505f826006015f8773ffffffffffffffffffffffffffffffffffffffff1673ffffffffffffffffffffffffffffffffffffffff1681526020019081526020015f2090505f8260010154111561264b576001600481111561242d5761242c614572565b5b825f015f9054906101000a900460ff16600481111561244f5761244e614572565b5b03612476578160010154815f015f82825461246a9190615a02565b92505081905550612530565b6002600481111561248a57612489614572565b5b825f015f9054906101000a900460ff1660048111156124ac576124ab614572565b5b036124d4578160010154816001015f8282546124c89190615a02565b9250508190555061252f565b600360048111156124e8576124e7614572565b5b825f015f9054906101000a900460ff16600481111561250a57612509614572565b5b0361252e578160010154816002015f8282546125269190615a02565b925050819055505b5b5b81600101548410156125f1575f84836001015461254d9190615a02565b90505f3373ffffffffffffffffffffffffffffffffffffffff168260405161257490615a5f565b5f6040518083038185875af1925050503d805f81146125ae576040519150601f19603f3d011682016040523d82523d5f602084013e6125b3565b606091505b50509050806125ee576040517f52311b8a00000000000000000000000000000000000000000000000000000000815260040160405180910390fd5b50505b81600101548411156126465781600101548461260d9190615a02565b3414612645576040517fe159ab8a00000000000000000000000000000000000000000000000000000000815260040160405180910390fd5b5b612685565b833414612684576040517fe159ab8a00000000000000000000000000000000000000000000000000000000815260040160405180910390fd5b5b6001600481111561269957612698614572565b5b8560048111156126ac576126ab614572565b5b036126cf5783815f015f8282546126c391906157aa565b92505081905550612763565b600260048111156126e3576126e2614572565b5b8560048111156126f6576126f5614572565b5b0361271a5783816001015f82825461270e91906157aa565b92505081905550612762565b6003600481111561272e5761272d614572565b5b85600481111561274157612740614572565b5b036127615783816002015f82825461275991906157aa565b925050819055505b5b5b84825f015f6101000a81548160ff0219169083600481111561278857612787614572565b5b02179055508382600101819055508573ffffffffffffffffffffffffffffffffffffffff166008543373ffffffffffffffffffffffffffffffffffffffff167f47d9a2d4c61e8c56439cdfd35189d9a016d48f2c0be9cc16ea0627a7621c7d1888886040516127f8929190615a73565b60405180910390a450505061280b6140e4565b505050565b61281861409e565b5f600d5f8381526020019081526020015f20905060038081111561283f5761283e614572565b5b815f015f9054906101000a900460ff16600381111561286157612860614572565b5b146128a357816040517f7bcea7bc00000000000000000000000000000000000000000000000000000000815260040161289a9190614665565b60405180910390fd5b5f60048111156128b6576128b5614572565b5b816005015f3373ffffffffffffffffffffffffffffffffffffffff1673ffffffffffffffffffffffffffffffffffffffff1681526020019081526020015f205f015f9054906101000a900460ff16600481111561291657612915614572565b5b0361294d576040517fe56ad37400000000000000000000000000000000000000000000000000000000815260040160405180910390fd5b806007015f3373ffffffffffffffffffffffffffffffffffffffff1673ffffffffffffffffffffffffffffffffffffffff1681526020019081526020015f205f9054906101000a900460ff16156129d0576040517f948d731600000000000000000000000000000000000000000000000000000000815260040160405180910390fd5b5f6129db83336138ee565b90505f8103612a16576040517f7707585900000000000000000000000000000000000000000000000000000000815260040160405180910390fd5b6001826007015f3373ffffffffffffffffffffffffffffffffffffffff1673ffffffffffffffffffffffffffffffffffffffff1681526020019081526020015f205f6101000a81548160ff0219169083151502179055505f3373ffffffffffffffffffffffffffffffffffffffff1682604051612a9290615a5f565b5f6040518083038185875af1925050503d805f8114612acc576040519150601f19603f3d011682016040523d82523d5f602084013e612ad1565b606091505b5050905080612b0c576040517f52311b8a00000000000000000000000000000000000000000000000000000000815260040160405180910390fd5b3373ffffffffffffffffffffffffffffffffffffffff16847f5380cf6fe903b40c6d5a9e0dfbca2f3a423f0a21520b4d5947ed5169bdba946d84604051612b539190614665565b60405180910390a3505050612b666140e4565b50565b612b716140ed565b612b7a5f614174565b565b60118181548110612b8b575f80fd5b905f5260205f20015f915090508054612ba3906152aa565b80601f0160208091040260200160405190810160405280929190818152602001828054612bcf906152aa565b8015612c1a5780601f10612bf157610100808354040283529160200191612c1a565b820191905f5260205f20905b815481529060010190602001808311612bfd57829003601f168201915b505050505081565b60075f9054906101000a900473ffffffffffffffffffffffffffffffffffffffff1673ffffffffffffffffffffffffffffffffffffffff163373ffffffffffffffffffffffffffffffffffffffff1614612ca8576040517f0196529900000000000000000000000000000000000000000000000000000000815260040160405180910390fd5b60405180602001604052808281525060035f820151815f01559050507f9fe6eeb0f0541c644a56c67efeb872dbadd803a60b909d7dde1b35a3fe230b0e81604051612cf39190614665565b60405180910390a150565b612d06614280565b600d5f8481526020019081526020015f206006015f8373ffffffffffffffffffffffffffffffffffffffff1673ffffffffffffffffffffffffffffffffffffffff1681526020019081526020015f206040518060a00160405290815f82015481526020016001820154815260200160028201548152602001600382015f9054906101000a900460ff166004811115612da157612da0614572565b5b6004811115612db357612db2614572565b5b81526020016003820160019054906101000a900460ff161515151581525050905092915050565b60055f9054906101000a900473ffffffffffffffffffffffffffffffffffffffff1673ffffffffffffffffffffffffffffffffffffffff163373ffffffffffffffffffffffffffffffffffffffff1614158015612e84575060075f9054906101000a900473ffffffffffffffffffffffffffffffffffffffff1673ffffffffffffffffffffffffffffffffffffffff163373ffffffffffffffffffffffffffffffffffffffff1614155b15612ebb576040517f433ba2d500000000000000000000000000000000000000000000000000000000815260040160405180910390fd5b600a5f9054906101000a900463ffffffff1663ffffffff1660098054905010612f10576040517f28e8d0c900000000000000000000000000000000000000000000000000000000815260040160405180910390fd5b5f73ffffffffffffffffffffffffffffffffffffffff16600e5f8373ffffffffffffffffffffffffffffffffffffffff1673ffffffffffffffffffffffffffffffffffffffff1681526020019081526020015f205f015f9054906101000a900473ffffffffffffffffffffffffffffffffffffffff1673ffffffffffffffffffffffffffffffffffffffff1614612fd3576040517f279f18a300000000000000000000000000000000000000000000000000000000815260040160405180910390fd5b600981908060018154018082558091505060019003905f5260205f20015f9091909190916101000a81548173ffffffffffffffffffffffffffffffffffffffff021916908373ffffffffffffffffffffffffffffffffffffffff1602179055508073ffffffffffffffffffffffffffffffffffffffff167ff68e73cec97f2d70aa641fb26e87a4383686e2efacb648f2165aeb02ac562ec560405160405180910390a250565b600d602052805f5260405f205f91509050805f015f9054906101000a900460ff1690805f0160019054906101000a900464ffffffffff1690805f0160069054906101000a900464ffffffffff16908060010154908060020154908060030154908060040154905087565b5f805f9054906101000a900473ffffffffffffffffffffffffffffffffffffffff16905090565b60055f9054906101000a900473ffffffffffffffffffffffffffffffffffffffff1673ffffffffffffffffffffffffffffffffffffffff163373ffffffffffffffffffffffffffffffffffffffff16141580156131b4575060075f9054906101000a900473ffffffffffffffffffffffffffffffffffffffff1673ffffffffffffffffffffffffffffffffffffffff163373ffffffffffffffffffffffffffffffffffffffff1614155b156131eb576040517f433ba2d500000000000000000000000000000000000000000000000000000000815260040160405180910390fd5b5f73ffffffffffffffffffffffffffffffffffffffff16600e5f8373ffffffffffffffffffffffffffffffffffffffff1673ffffffffffffffffffffffffffffffffffffffff1681526020019081526020015f205f015f9054906101000a900473ffffffffffffffffffffffffffffffffffffffff1673ffffffffffffffffffffffffffffffffffffffff16036132b957806040517f2fa0c6410000000000000000000000000000000000000000000000000000000081526004016132b0919061434b565b60405180910390fd5b5f600e5f8373ffffffffffffffffffffffffffffffffffffffff1673ffffffffffffffffffffffffffffffffffffffff1681526020019081526020015f206002015f6101000a81548160ff0219169083151502179055505f805b600980549050811015613494578273ffffffffffffffffffffffffffffffffffffffff166009828154811061334b5761334a6156cd565b5b905f5260205f20015f9054906101000a900473ffffffffffffffffffffffffffffffffffffffff1673ffffffffffffffffffffffffffffffffffffffff160361348157600960016009805490506133a29190615a02565b815481106133b3576133b26156cd565b5b905f5260205f20015f9054906101000a900473ffffffffffffffffffffffffffffffffffffffff16600982815481106133ef576133ee6156cd565b5b905f5260205f20015f6101000a81548173ffffffffffffffffffffffffffffffffffffffff021916908373ffffffffffffffffffffffffffffffffffffffff160217905550600980548061344657613445615a9a565b5b600190038181905f5260205f20015f6101000a81549073ffffffffffffffffffffffffffffffffffffffff0219169055905560019150613494565b808061348c90615763565b915050613313565b50806134d757816040517f2fa0c6410000000000000000000000000000000000000000000000000000000081526004016134ce919061434b565b60405180910390fd5b8173ffffffffffffffffffffffffffffffffffffffff167fed9c8ad8d5a0a66898ea49d2956929c93ae2e8bd50281b2ed897c5d1a6737e0b60405160405180910390a25050565b600c5f9054906101000a900460ff1681565b6003805f0154905081565b60085481565b60055f9054906101000a900473ffffffffffffffffffffffffffffffffffffffff1681565b61356e6142be565b60036040518060200160405290815f82015481525050905090565b6135916142d0565b600d5f8481526020019081526020015f206005015f8373ffffffffffffffffffffffffffffffffffffffff1673ffffffffffffffffffffffffffffffffffffffff1681526020019081526020015f206040518060600160405290815f82015f9054906101000a900460ff16600481111561360e5761360d614572565b5b60048111156136205761361f614572565b5b815260200160018201548152602001600282015f9054906101000a900460ff161515151581525050905092915050565b5f600d5f8381526020019081526020015f205f015f9054906101000a900460ff169050919050565b6060600d5f8481526020019081526020015f206008015f8373ffffffffffffffffffffffffffffffffffffffff1673ffffffffffffffffffffffffffffffffffffffff1681526020019081526020015f20805480602002602001604051908101604052809291908181526020015f905b828210156138b5578382905f5260205f2090600302016040518060800160405290815f82018054613718906152aa565b80601f0160208091040260200160405190810160405280929190818152602001828054613744906152aa565b801561378f5780601f106137665761010080835404028352916020019161378f565b820191905f5260205f20905b81548152906001019060200180831161377257829003601f168201915b50505050508152602001600182015f9054906101000a900473ffffffffffffffffffffffffffffffffffffffff1673ffffffffffffffffffffffffffffffffffffffff1673ffffffffffffffffffffffffffffffffffffffff1681526020016001820160149054906101000a900464ffffffffff1664ffffffffff1664ffffffffff168152602001600282018054613826906152aa565b80601f0160208091040260200160405190810160405280929190818152602001828054613852906152aa565b801561389d5780601f106138745761010080835404028352916020019161389d565b820191905f5260205f20905b81548152906001019060200180831161388057829003601f168201915b505050505081525050815260200190600101906136e8565b50505050905092915050565b5f600d5f8381526020019081526020015f205f0160019054906101000a900464ffffffffff169050919050565b5f80600d5f8581526020019081526020015f2090505f805b600a5f9054906101000a900463ffffffff1663ffffffff16811015613b19575f6009828154811061393a576139396156cd565b5b905f5260205f20015f9054906101000a900473ffffffffffffffffffffffffffffffffffffffff1690505f846006015f8373ffffffffffffffffffffffffffffffffffffffff1673ffffffffffffffffffffffffffffffffffffffff1681526020019081526020015f2090505f856005015f8973ffffffffffffffffffffffffffffffffffffffff1673ffffffffffffffffffffffffffffffffffffffff1681526020019081526020015f2090508160030160019054906101000a900460ff168015613a485750816003015f9054906101000a900460ff166004811115613a2457613a23614572565b5b815f015f9054906101000a900460ff166004811115613a4657613a45614572565b5b145b15613aea575f808360010154845f0154613a6291906157aa565b905060016004811115613a7857613a77614572565b5b835f015f9054906101000a900460ff166004811115613a9a57613a99614572565b5b03613aaa57835f01549150613ab2565b836001015491505b5f821115613ae35781818460010154613acb9190615ac7565b613ad59190615b35565b87613ae091906157aa565b96505b5050613afd565b806001015485613afa91906157aa565b94505b8360010193505050508080613b1190615763565b915050613906565b50809250505092915050565b60025f9054906101000a900473ffffffffffffffffffffffffffffffffffffffff1681565b613b526140ed565b5f73ffffffffffffffffffffffffffffffffffffffff168173ffffffffffffffffffffffffffffffffffffffff1603613bc2575f6040517f1e4fbdf7000000000000000000000000000000000000000000000000000000008152600401613bb9919061434b565b60405180910390fd5b613bcb81614174565b50565b600a60089054906101000a900464ffffffffff1681565b60065f9054906101000a900473ffffffffffffffffffffffffffffffffffffffff1681565b613ca28282604051602401613c20929190615b65565b6040516020818303038152906040527fc3b55635000000000000000000000000000000000000000000000000000000007bffffffffffffffffffffffffffffffffffffffffffffffffffffffff19166020820180517bffffffffffffffffffffffffffffffffffffffffffffffffffffffff8381831617835250505050614235565b5050565b5f600d5f8381526020019081526020015f2090505f816001015490505f805f60025f9054906101000a900473ffffffffffffffffffffffffffffffffffffffff1673ffffffffffffffffffffffffffffffffffffffff1663db8d55f16040518163ffffffff1660e01b815260040160a060405180830381865afa158015613d2f573d5f803e3d5ffd5b505050506040513d601f19601f82011682018060405250810190613d539190615ba7565b94509450945050505f60025f9054906101000a900473ffffffffffffffffffffffffffffffffffffffff1673ffffffffffffffffffffffffffffffffffffffff1663e1f1c4a76040518163ffffffff1660e01b8152600401602060405180830381865afa158015613dc6573d5f803e3d5ffd5b505050506040513d601f19601f82011682018060405250810190613dea9190615c1e565b90505f818587613dfa9190615ac7565b613e049190615b35565b90505f828588613e149190615ac7565b613e1e9190615b35565b90505f60075f9054906101000a900473ffffffffffffffffffffffffffffffffffffffff1673ffffffffffffffffffffffffffffffffffffffff1683604051613e6690615a5f565b5f6040518083038185875af1925050503d805f8114613ea0576040519150601f19603f3d011682016040523d82523d5f602084013e613ea5565b606091505b5050905080613ee0576040517f52311b8a00000000000000000000000000000000000000000000000000000000815260040160405180910390fd5b5f600583613eee9190615b35565b90505f600582613efe9190615ac7565b85613f0991906157aa565b90505f87828c613f199190615a02565b613f239190615a02565b90505f60025f9054906101000a900473ffffffffffffffffffffffffffffffffffffffff1673ffffffffffffffffffffffffffffffffffffffff16634162169f6040518163ffffffff1660e01b8152600401602060405180830381865afa158015613f90573d5f803e3d5ffd5b505050506040513d601f19601f82011682018060405250810190613fb49190615c5d565b90505f8173ffffffffffffffffffffffffffffffffffffffff16838b613fda91906157aa565b604051613fe690615a5f565b5f6040518083038185875af1925050503d805f8114614020576040519150601f19603f3d011682016040523d82523d5f602084013e614025565b606091505b5050905080614060576040517f52311b8a00000000000000000000000000000000000000000000000000000000815260040160405180910390fd5b8e7f8959421a1320789a49eeec01a4750caf8a30733c3db14f000d84484df89300f960405160405180910390a2505050505050505050505050505050565b6002600154036140da576040517f3ee5aeb500000000000000000000000000000000000000000000000000000000815260040160405180910390fd5b6002600181905550565b60018081905550565b6140f561424f565b73ffffffffffffffffffffffffffffffffffffffff166141136130e3565b73ffffffffffffffffffffffffffffffffffffffff16146141725761413661424f565b6040517f118cdaa7000000000000000000000000000000000000000000000000000000008152600401614169919061434b565b60405180910390fd5b565b5f805f9054906101000a900473ffffffffffffffffffffffffffffffffffffffff169050815f806101000a81548173ffffffffffffffffffffffffffffffffffffffff021916908373ffffffffffffffffffffffffffffffffffffffff1602179055508173ffffffffffffffffffffffffffffffffffffffff168173ffffffffffffffffffffffffffffffffffffffff167f8be0079c531659141344cd1fd0a4f28419497f9722a3daafe3b4186f6b6457e060405160405180910390a35050565b61424c81614244614256614275565b63ffffffff16565b50565b5f33905090565b5f6a636f6e736f6c652e6c6f6790505f80835160208501845afa505050565b614302819050919050565b6040518060a001604052805f81526020015f81526020015f81526020015f60048111156142b0576142af614572565b5b81526020015f151581525090565b60405180602001604052805f81525090565b60405180606001604052805f60048111156142ee576142ed614572565b5b81526020015f81526020015f151581525090565b61430a615c88565b565b5f73ffffffffffffffffffffffffffffffffffffffff82169050919050565b5f6143358261430c565b9050919050565b6143458161432b565b82525050565b5f60208201905061435e5f83018461433c565b92915050565b5f604051905090565b5f80fd5b5f80fd5b5f80fd5b5f80fd5b5f601f19601f8301169050919050565b7f4e487b71000000000000000000000000000000000000000000000000000000005f52604160045260245ffd5b6143c38261437d565b810181811067ffffffffffffffff821117156143e2576143e161438d565b5b80604052505050565b5f6143f4614364565b905061440082826143ba565b919050565b5f67ffffffffffffffff82111561441f5761441e61438d565b5b6144288261437d565b9050602081019050919050565b828183375f83830152505050565b5f61445561445084614405565b6143eb565b90508281526020810184848401111561447157614470614379565b5b61447c848285614435565b509392505050565b5f82601f83011261449857614497614375565b5b81356144a8848260208601614443565b91505092915050565b5f602082840312156144c6576144c561436d565b5b5f82013567ffffffffffffffff8111156144e3576144e2614371565b5b6144ef84828501614484565b91505092915050565b5f81519050919050565b5f82825260208201905092915050565b5f5b8381101561452f578082015181840152602081019050614514565b5f8484015250505050565b5f614544826144f8565b61454e8185614502565b935061455e818560208601614512565b6145678161437d565b840191505092915050565b7f4e487b71000000000000000000000000000000000000000000000000000000005f52602160045260245ffd5b600481106145b0576145af614572565b5b50565b5f8190506145c08261459f565b919050565b5f6145cf826145b3565b9050919050565b6145df816145c5565b82525050565b5f819050919050565b6145f7816145e5565b82525050565b5f63ffffffff82169050919050565b614615816145fd565b82525050565b5f6080820190508181035f830152614633818761453a565b905061464260208301866145d6565b61464f60408301856145ee565b61465c606083018461460c565b95945050505050565b5f6020820190506146785f8301846145ee565b92915050565b5f6020820190506146915f83018461460c565b92915050565b600481106146a3575f80fd5b50565b5f813590506146b481614697565b92915050565b6146c3816145e5565b81146146cd575f80fd5b50565b5f813590506146de816146ba565b92915050565b6146ed816145fd565b81146146f7575f80fd5b50565b5f81359050614708816146e4565b92915050565b5f805f80608085870312156147265761472561436d565b5b5f85013567ffffffffffffffff81111561474357614742614371565b5b61474f87828801614484565b9450506020614760878288016146a6565b9350506040614771878288016146d0565b9250506060614782878288016146fa565b91505092959194509250565b5f602082840312156147a3576147a261436d565b5b5f6147b0848285016146d0565b91505092915050565b5f64ffffffffff82169050919050565b6147d2816147b9565b82525050565b5f6020820190506147eb5f8301846147c9565b92915050565b600481106147fd575f80fd5b50565b5f8135905061480e816147f1565b92915050565b5f602082840312156148295761482861436d565b5b5f61483684828501614800565b91505092915050565b6148488161432b565b8114614852575f80fd5b50565b5f813590506148638161483f565b92915050565b5f67ffffffffffffffff8211156148835761488261438d565b5b61488c8261437d565b9050602081019050919050565b5f6148ab6148a684614869565b6143eb565b9050828152602081018484840111156148c7576148c6614379565b5b6148d2848285614435565b509392505050565b5f82601f8301126148ee576148ed614375565b5b81356148fe848260208601614899565b91505092915050565b5f805f6060848603121561491e5761491d61436d565b5b5f61492b86828701614855565b935050602084013567ffffffffffffffff81111561494c5761494b614371565b5b61495886828701614484565b925050604084013567ffffffffffffffff81111561497957614978614371565b5b614985868287016148da565b9150509250925092565b5f80604083850312156149a5576149a461436d565b5b5f6149b2858286016146d0565b92505060206149c385828601614855565b9150509250929050565b5f8115159050919050565b6149e1816149cd565b82525050565b5f6020820190506149fa5f8301846149d8565b92915050565b5f67ffffffffffffffff821115614a1a57614a1961438d565b5b602082029050602081019050919050565b5f80fd5b5f614a41614a3c84614a00565b6143eb565b90508083825260208201905060208402830185811115614a6457614a63614a2b565b5b835b81811015614a8d5780614a798882614855565b845260208401935050602081019050614a66565b5050509392505050565b5f82601f830112614aab57614aaa614375565b5b8135614abb848260208601614a2f565b91505092915050565b5f67ffffffffffffffff821115614ade57614add61438d565b5b602082029050602081019050919050565b5f614b01614afc84614ac4565b6143eb565b90508083825260208201905060208402830185811115614b2457614b23614a2b565b5b835b81811015614b4d5780614b3988826146d0565b845260208401935050602081019050614b26565b5050509392505050565b5f82601f830112614b6b57614b6a614375565b5b8135614b7b848260208601614aef565b91505092915050565b5f805f805f805f80610100898b031215614ba157614ba061436d565b5b5f614bae8b828c01614855565b9850506020614bbf8b828c01614855565b9750506040614bd08b828c01614855565b9650506060614be18b828c01614855565b9550506080614bf28b828c016146d0565b94505060a089013567ffffffffffffffff811115614c1357614c12614371565b5b614c1f8b828c01614a97565b93505060c089013567ffffffffffffffff811115614c4057614c3f614371565b5b614c4c8b828c01614a97565b92505060e089013567ffffffffffffffff811115614c6d57614c6c614371565b5b614c798b828c01614b57565b9150509295985092959890939650565b5f60208284031215614c9e57614c9d61436d565b5b5f614cab84828501614855565b91505092915050565b5f606082019050614cc75f83018661433c565b614cd460208301856145ee565b614ce160408301846149d8565b949350505050565b614cf2816147b9565b8114614cfc575f80fd5b50565b5f81359050614d0d81614ce9565b92915050565b5f60208284031215614d2857614d2761436d565b5b5f614d3584828501614cff565b91505092915050565b60058110614d4a575f80fd5b50565b5f81359050614d5b81614d3e565b92915050565b5f8060408385031215614d7757614d7661436d565b5b5f614d8485828601614855565b9250506020614d9585828601614d4d565b9150509250929050565b5f805f60608486031215614db657614db561436d565b5b5f614dc386828701614855565b9350506020614dd486828701614d4d565b9250506040614de5868287016146d0565b9150509250925092565b5f6020820190508181035f830152614e07818461453a565b905092915050565b614e18816145e5565b82525050565b60058110614e2f57614e2e614572565b5b50565b5f819050614e3f82614e1e565b919050565b5f614e4e82614e32565b9050919050565b614e5e81614e44565b82525050565b614e6d816149cd565b82525050565b60a082015f820151614e875f850182614e0f565b506020820151614e9a6020850182614e0f565b506040820151614ead6040850182614e0f565b506060820151614ec06060850182614e55565b506080820151614ed36080850182614e64565b50505050565b5f60a082019050614eec5f830184614e73565b92915050565b60048110614f0357614f02614572565b5b50565b5f819050614f1382614ef2565b919050565b5f614f2282614f06565b9050919050565b614f3281614f18565b82525050565b5f60e082019050614f4b5f83018a614f29565b614f5860208301896147c9565b614f6560408301886147c9565b614f7260608301876145ee565b614f7f60808301866145ee565b614f8c60a08301856145ee565b614f9960c08301846145ee565b98975050505050505050565b602082015f820151614fb95f850182614e0f565b50505050565b5f602082019050614fd25f830184614fa5565b92915050565b606082015f820151614fec5f850182614e55565b506020820151614fff6020850182614e0f565b5060408201516150126040850182614e64565b50505050565b5f60608201905061502b5f830184614fd8565b92915050565b5f6020820190506150445f830184614f29565b92915050565b5f81519050919050565b5f82825260208201905092915050565b5f819050602082019050919050565b5f82825260208201905092915050565b5f61508d826144f8565b6150978185615073565b93506150a7818560208601614512565b6150b08161437d565b840191505092915050565b6150c48161432b565b82525050565b6150d3816147b9565b82525050565b5f81519050919050565b5f82825260208201905092915050565b5f6150fd826150d9565b61510781856150e3565b9350615117818560208601614512565b6151208161437d565b840191505092915050565b5f608083015f8301518482035f8601526151458282615083565b915050602083015161515a60208601826150bb565b50604083015161516d60408601826150ca565b506060830151848203606086015261518582826150f3565b9150508091505092915050565b5f61519d838361512b565b905092915050565b5f602082019050919050565b5f6151bb8261504a565b6151c58185615054565b9350836020820285016151d785615064565b805f5b8581101561521257848403895281516151f38582615192565b94506151fe836151a5565b925060208a019950506001810190506151da565b50829750879550505050505092915050565b5f6020820190508181035f83015261523c81846151b1565b905092915050565b5f61524e8261430c565b9050919050565b61525e81615244565b82525050565b5f6020820190506152775f830184615255565b92915050565b7f4e487b71000000000000000000000000000000000000000000000000000000005f52602260045260245ffd5b5f60028204905060018216806152c157607f821691505b6020821081036152d4576152d361527d565b5b50919050565b5f81905092915050565b50565b5f6152f25f836152da565b91506152fd826152e4565b5f82019050919050565b5f615311826152e7565b9150819050919050565b5f615325826144f8565b61532f81856152da565b935061533f818560208601614512565b80840191505092915050565b5f615356828461531b565b915081905092915050565b5f819050815f5260205f209050919050565b5f815461537f816152aa565b61538981866152da565b9450600182165f81146153a357600181146153b8576153ea565b60ff19831686528115158202860193506153ea565b6153c185615361565b5f5b838110156153e2578154818901526001820191506020810190506153c3565b838801955050505b50505092915050565b5f6153fe8284615373565b915081905092915050565b5f6020601f8301049050919050565b5f82821b905092915050565b5f600883026154537fffffffffffffffffffffffffffffffffffffffffffffffffffffffffffffffff82615418565b61545d8683615418565b95508019841693508086168417925050509392505050565b5f819050919050565b5f61549861549361548e846145e5565b615475565b6145e5565b9050919050565b5f819050919050565b6154b18361547e565b6154c56154bd8261549f565b848454615424565b825550505050565b5f90565b6154d96154cd565b6154e48184846154a8565b505050565b5b81811015615507576154fc5f826154d1565b6001810190506154ea565b5050565b601f82111561554c5761551d81615361565b61552684615409565b81016020851015615535578190505b61554961554185615409565b8301826154e9565b50505b505050565b5f82821c905092915050565b5f61556c5f1984600802615551565b1980831691505092915050565b5f615584838361555d565b9150826002028217905092915050565b61559d826144f8565b67ffffffffffffffff8111156155b6576155b561438d565b5b6155c082546152aa565b6155cb82828561550b565b5f60209050601f8311600181146155fc575f84156155ea578287015190505b6155f48582615579565b86555061565b565b601f19841661560a86615361565b5f5b828110156156315784890151825560018201915060208501945060208101905061560c565b8683101561564e578489015161564a601f89168261555d565b8355505b6001600288020188555050505b505050505050565b5f6080820190506156765f8301876145ee565b615683602083018661460c565b61569060408301856149d8565b61569d60608301846149d8565b95945050505050565b5f6040820190506156b95f830185614f29565b6156c66020830184614f29565b9392505050565b7f4e487b71000000000000000000000000000000000000000000000000000000005f52603260045260245ffd5b5f6060820190508181035f830152615712818661453a565b9050615721602083018561433c565b61572e60408301846147c9565b949350505050565b7f4e487b71000000000000000000000000000000000000000000000000000000005f52601160045260245ffd5b5f61576d826145e5565b91507fffffffffffffffffffffffffffffffffffffffffffffffffffffffffffffffff820361579f5761579e615736565b5b600182019050919050565b5f6157b4826145e5565b91506157bf836145e5565b92508282019050808211156157d7576157d6615736565b5b92915050565b5f819050815f5260205f209050919050565b601f82111561583057615801816157dd565b61580a84615409565b81016020851015615819578190505b61582d61582585615409565b8301826154e9565b50505b505050565b61583e826150d9565b67ffffffffffffffff8111156158575761585661438d565b5b61586182546152aa565b61586c8282856157ef565b5f60209050601f83116001811461589d575f841561588b578287015190505b6158958582615579565b8655506158fc565b601f1984166158ab866157dd565b5f5b828110156158d2578489015182556001820191506020850194506020810190506158ad565b868310156158ef57848901516158eb601f89168261555d565b8355505b6001600288020188555050505b505050505050565b5f82825260208201905092915050565b5f61591e826150d9565b6159288185615904565b9350615938818560208601614512565b6159418161437d565b840191505092915050565b5f60408201905061595f5f8301856147c9565b81810360208301526159718184615914565b90509392505050565b5f615984826145fd565b915063ffffffff820361599a57615999615736565b5b600182019050919050565b5f6040820190506159b85f8301856147c9565b6159c560208301846147c9565b9392505050565b6159d581614e44565b82525050565b5f6040820190506159ee5f83018561433c565b6159fb60208301846159cc565b9392505050565b5f615a0c826145e5565b9150615a17836145e5565b9250828203905081811115615a2f57615a2e615736565b5b92915050565b5f81905092915050565b5f615a4a5f83615a35565b9150615a55826152e4565b5f82019050919050565b5f615a6982615a3f565b9150819050919050565b5f604082019050615a865f8301856159cc565b615a9360208301846145ee565b9392505050565b7f4e487b71000000000000000000000000000000000000000000000000000000005f52603160045260245ffd5b5f615ad1826145e5565b9150615adc836145e5565b9250828202615aea816145e5565b91508282048414831517615b0157615b00615736565b5b5092915050565b7f4e487b71000000000000000000000000000000000000000000000000000000005f52601260045260245ffd5b5f615b3f826145e5565b9150615b4a836145e5565b925082615b5a57615b59615b08565b5b828204905092915050565b5f6040820190508181035f830152615b7d818561453a565b9050615b8c60208301846149d8565b9392505050565b5f81519050615ba1816146ba565b92915050565b5f805f805f60a08688031215615bc057615bbf61436d565b5b5f615bcd88828901615b93565b9550506020615bde88828901615b93565b9450506040615bef88828901615b93565b9350506060615c0088828901615b93565b9250506080615c1188828901615b93565b9150509295509295909350565b5f60208284031215615c3357615c3261436d565b5b5f615c4084828501615b93565b91505092915050565b5f81519050615c578161483f565b92915050565b5f60208284031215615c7257615c7161436d565b5b5f615c7f84828501615c49565b91505092915050565b7f4e487b71000000000000000000000000000000000000000000000000000000005f52605160045260245ffdfea2646970667358221220df38036bc887c39dd8b15351c1a96dc6e4b984a445d02a26f8ed5454257af42c64736f6c63430008140033","linkReferences":{}},"methodIdentifiers":{"PROCESSING_DURATION()":"05c83d30","activeAgents(uint256)":"520d5e25","addAgent(address)":"84e79842","agentData(address)":"2f88d7ba","calculateWinnings(uint256,address)":"f15cc406","claimWinnings(uint256)":"677bd9ff","core()":"f2f4eb26","creator()":"02d05d3f","currentAgentCount()":"4b961e76","currentRoundId()":"9cbe5efd","feeBalance()":"60b71d4e","fees()":"9af1d35a","gameMaster()":"bdf84ae7","getAgentPosition(uint256,address)":"7d4510d9","getHasClaimedWinnings(uint256,address)":"1dc5670d","getPvpStatuses(uint256,address)":"d0ed7460","getRoomFees()":"be60ae31","getRoundEndTime(uint256)":"12b19a13","getRoundStartTime(uint256)":"ddc6ac23","getRoundState(uint256)":"c642e7bf","getUserBet(uint256,address)":"c03fb87c","initialize(address,address,address,address,uint256,address[],address[],uint256[])":"263485cb","invokePvpAction(address,string,bytes)":"1a086bd0","maxAgents()":"0a34d637","owner()":"8da5cb5b","placeBet(address,uint8,uint256)":"64e0fb27","pvpEnabled()":"995982ec","removeAgent(address)":"97a6278e","renounceOwnership()":"715018a6","resolveMarket()":"2b9b55b3","roundDuration()":"f7cb789a","rounds(uint256)":"8c65c81f","setCurrentRoundState(uint8)":"1602009a","startRound()":"55e3f086","submitAgentDecision(address,uint8)":"4d2a7941","supportedPvpActions(string)":"054bb186","supportedPvpVerbs(uint256)":"7592d541","token()":"fc0c546a","transferOwnership(address)":"f2fde38b","updateFees(uint256)":"78dacee1","updateRoundDuration(uint40)":"4245d5f0","updateSupportedPvpActions(string,uint8,uint256,uint32)":"0cc8cbd4"},"id":36}