{"abi":[{"type":"constructor","inputs":[],"stateMutability":"nonpayable"},{"type":"receive","stateMutability":"payable"},{"type":"function","name":"activeAgents","inputs":[{"name":"","type":"uint256","internalType":"uint256"}],"outputs":[{"name":"","type":"address","internalType":"address"}],"stateMutability":"view"},{"type":"function","name":"addAgent","inputs":[{"name":"agent","type":"address","internalType":"address"}],"outputs":[],"stateMutability":"nonpayable"},{"type":"function","name":"agentData","inputs":[{"name":"","type":"address","internalType":"address"}],"outputs":[{"name":"feeRecipient","type":"address","internalType":"address"},{"name":"coreId","type":"uint256","internalType":"uint256"},{"name":"active","type":"bool","internalType":"bool"}],"stateMutability":"view"},{"type":"function","name":"calculateWinnings","inputs":[{"name":"roundId","type":"uint256","internalType":"uint256"},{"name":"user","type":"address","internalType":"address"}],"outputs":[{"name":"","type":"uint256","internalType":"uint256"}],"stateMutability":"view"},{"type":"function","name":"changeRoundState","inputs":[{"name":"newState","type":"uint8","internalType":"enum Room.RoundState"}],"outputs":[],"stateMutability":"nonpayable"},{"type":"function","name":"claimWinnings","inputs":[{"name":"roundId","type":"uint256","internalType":"uint256"}],"outputs":[],"stateMutability":"nonpayable"},{"type":"function","name":"core","inputs":[],"outputs":[{"name":"","type":"address","internalType":"address payable"}],"stateMutability":"view"},{"type":"function","name":"creator","inputs":[],"outputs":[{"name":"","type":"address","internalType":"address"}],"stateMutability":"view"},{"type":"function","name":"currentAgentCount","inputs":[],"outputs":[{"name":"","type":"uint32","internalType":"uint32"}],"stateMutability":"view"},{"type":"function","name":"currentRoundId","inputs":[],"outputs":[{"name":"","type":"uint256","internalType":"uint256"}],"stateMutability":"view"},{"type":"function","name":"feeBalance","inputs":[],"outputs":[{"name":"","type":"uint256","internalType":"uint256"}],"stateMutability":"view"},{"type":"function","name":"gameMaster","inputs":[],"outputs":[{"name":"","type":"address","internalType":"address"}],"stateMutability":"view"},{"type":"function","name":"getAgentPosition","inputs":[{"name":"roundId","type":"uint256","internalType":"uint256"},{"name":"agent","type":"address","internalType":"address"}],"outputs":[{"name":"","type":"tuple","internalType":"struct Room.AgentPosition","components":[{"name":"buyPool","type":"uint256","internalType":"uint256"},{"name":"hold","type":"uint256","internalType":"uint256"},{"name":"sell","type":"uint256","internalType":"uint256"},{"name":"decision","type":"uint8","internalType":"enum Room.BetType"},{"name":"hasDecided","type":"bool","internalType":"bool"}]}],"stateMutability":"view"},{"type":"function","name":"getAgents","inputs":[],"outputs":[{"name":"","type":"address[]","internalType":"address[]"}],"stateMutability":"view"},{"type":"function","name":"getHasClaimedWinnings","inputs":[{"name":"roundId","type":"uint256","internalType":"uint256"},{"name":"user","type":"address","internalType":"address"}],"outputs":[{"name":"","type":"bool","internalType":"bool"}],"stateMutability":"view"},{"type":"function","name":"getPvpActionFee","inputs":[{"name":"verb","type":"string","internalType":"string"}],"outputs":[{"name":"","type":"uint256","internalType":"uint256"}],"stateMutability":"view"},{"type":"function","name":"getPvpStatuses","inputs":[{"name":"agent","type":"address","internalType":"address"}],"outputs":[{"name":"","type":"tuple[]","internalType":"struct Room.PvpStatus[]","components":[{"name":"verb","type":"string","internalType":"string"},{"name":"instigator","type":"address","internalType":"address"},{"name":"endTime","type":"uint40","internalType":"uint40"},{"name":"parameters","type":"bytes","internalType":"bytes"}]}],"stateMutability":"view"},{"type":"function","name":"getRoundEndTime","inputs":[{"name":"roundId","type":"uint256","internalType":"uint256"}],"outputs":[{"name":"","type":"uint40","internalType":"uint40"}],"stateMutability":"view"},{"type":"function","name":"getRoundStartTime","inputs":[{"name":"roundId","type":"uint256","internalType":"uint256"}],"outputs":[{"name":"","type":"uint40","internalType":"uint40"}],"stateMutability":"view"},{"type":"function","name":"getRoundState","inputs":[{"name":"roundId","type":"uint256","internalType":"uint256"}],"outputs":[{"name":"","type":"uint8","internalType":"enum Room.RoundState"}],"stateMutability":"view"},{"type":"function","name":"getTotalBets","inputs":[{"name":"roundId","type":"uint256","internalType":"uint256"},{"name":"agent","type":"address","internalType":"address"}],"outputs":[{"name":"buyAmount","type":"uint256","internalType":"uint256"},{"name":"sellAmount","type":"uint256","internalType":"uint256"},{"name":"holfAmount","type":"uint256","internalType":"uint256"}],"stateMutability":"view"},{"type":"function","name":"getUserBet","inputs":[{"name":"roundId","type":"uint256","internalType":"uint256"},{"name":"user","type":"address","internalType":"address"}],"outputs":[{"name":"","type":"tuple","internalType":"struct Room.UserBet","components":[{"name":"bettype","type":"uint8","internalType":"enum Room.BetType"},{"name":"amount","type":"uint256","internalType":"uint256"},{"name":"refunded","type":"bool","internalType":"bool"}]}],"stateMutability":"view"},{"type":"function","name":"initialize","inputs":[{"name":"_gameMaster","type":"address","internalType":"address"},{"name":"_token","type":"address","internalType":"address"},{"name":"_creator","type":"address","internalType":"address"},{"name":"_core","type":"address","internalType":"address"},{"name":"_initialAgents","type":"address[]","internalType":"address[]"},{"name":"_initialAgentFeeRecipients","type":"address[]","internalType":"address[]"},{"name":"_initialAgentIds","type":"uint256[]","internalType":"uint256[]"}],"outputs":[],"stateMutability":"nonpayable"},{"type":"function","name":"invokePvpAction","inputs":[{"name":"target","type":"address","internalType":"address"},{"name":"verb","type":"string","internalType":"string"},{"name":"parameters","type":"bytes","internalType":"bytes"}],"outputs":[],"stateMutability":"payable"},{"type":"function","name":"maxAgents","inputs":[],"outputs":[{"name":"","type":"uint32","internalType":"uint32"}],"stateMutability":"view"},{"type":"function","name":"owner","inputs":[],"outputs":[{"name":"","type":"address","internalType":"address"}],"stateMutability":"view"},{"type":"function","name":"placeBet","inputs":[{"name":"agent","type":"address","internalType":"address"},{"name":"betType","type":"uint8","internalType":"enum Room.BetType"},{"name":"amount","type":"uint256","internalType":"uint256"}],"outputs":[],"stateMutability":"payable"},{"type":"function","name":"pvpEnabled","inputs":[],"outputs":[{"name":"","type":"bool","internalType":"bool"}],"stateMutability":"view"},{"type":"function","name":"removeAgent","inputs":[{"name":"agent","type":"address","internalType":"address"}],"outputs":[],"stateMutability":"nonpayable"},{"type":"function","name":"renounceOwnership","inputs":[],"outputs":[],"stateMutability":"nonpayable"},{"type":"function","name":"resolveMarket","inputs":[],"outputs":[],"stateMutability":"nonpayable"},{"type":"function","name":"roundDuration","inputs":[],"outputs":[{"name":"","type":"uint40","internalType":"uint40"}],"stateMutability":"view"},{"type":"function","name":"rounds","inputs":[{"name":"","type":"uint256","internalType":"uint256"}],"outputs":[{"name":"state","type":"uint8","internalType":"enum Room.RoundState"},{"name":"startTime","type":"uint40","internalType":"uint40"},{"name":"endTime","type":"uint40","internalType":"uint40"},{"name":"totalFees","type":"uint256","internalType":"uint256"},{"name":"totalBetsBuy","type":"uint256","internalType":"uint256"},{"name":"totalBetsHold","type":"uint256","internalType":"uint256"},{"name":"totalBetsSell","type":"uint256","internalType":"uint256"}],"stateMutability":"view"},{"type":"function","name":"setCurrentRoundState","inputs":[{"name":"newState","type":"uint8","internalType":"enum Room.RoundState"}],"outputs":[],"stateMutability":"nonpayable"},{"type":"function","name":"startRound","inputs":[],"outputs":[],"stateMutability":"nonpayable"},{"type":"function","name":"submitAgentDecision","inputs":[{"name":"agent","type":"address","internalType":"address"},{"name":"decision","type":"uint8","internalType":"enum Room.BetType"}],"outputs":[],"stateMutability":"nonpayable"},{"type":"function","name":"supportedPvpActions","inputs":[{"name":"","type":"string","internalType":"string"}],"outputs":[{"name":"verb","type":"string","internalType":"string"},{"name":"category","type":"uint8","internalType":"enum Room.PvpActionCategory"},{"name":"fee","type":"uint256","internalType":"uint256"},{"name":"duration","type":"uint32","internalType":"uint32"}],"stateMutability":"view"},{"type":"function","name":"supportedPvpVerbs","inputs":[{"name":"","type":"uint256","internalType":"uint256"}],"outputs":[{"name":"","type":"string","internalType":"string"}],"stateMutability":"view"},{"type":"function","name":"token","inputs":[],"outputs":[{"name":"","type":"address","internalType":"address"}],"stateMutability":"view"},{"type":"function","name":"transferOwnership","inputs":[{"name":"newOwner","type":"address","internalType":"address"}],"outputs":[],"stateMutability":"nonpayable"},{"type":"function","name":"updateRoundDuration","inputs":[{"name":"newDuration","type":"uint40","internalType":"uint40"}],"outputs":[],"stateMutability":"nonpayable"},{"type":"function","name":"updateSupportedPvpActions","inputs":[{"name":"verb","type":"string","internalType":"string"},{"name":"category","type":"uint8","internalType":"enum Room.PvpActionCategory"},{"name":"fee","type":"uint256","internalType":"uint256"},{"name":"duration","type":"uint32","internalType":"uint32"}],"outputs":[],"stateMutability":"nonpayable"},{"type":"event","name":"AgentAdded","inputs":[{"name":"agent","type":"address","indexed":true,"internalType":"address"}],"anonymous":false},{"type":"event","name":"AgentDecisionSubmitted","inputs":[{"name":"roundId","type":"uint256","indexed":true,"internalType":"uint256"},{"name":"agent","type":"address","indexed":false,"internalType":"address"},{"name":"betType","type":"uint8","indexed":false,"internalType":"enum Room.BetType"}],"anonymous":false},{"type":"event","name":"AgentRemoved","inputs":[{"name":"agent","type":"address","indexed":true,"internalType":"address"}],"anonymous":false},{"type":"event","name":"BetPlaced","inputs":[{"name":"user","type":"address","indexed":true,"internalType":"address"},{"name":"roundId","type":"uint256","indexed":true,"internalType":"uint256"},{"name":"agent","type":"address","indexed":true,"internalType":"address"},{"name":"betType","type":"uint8","indexed":false,"internalType":"enum Room.BetType"},{"name":"amount","type":"uint256","indexed":false,"internalType":"uint256"}],"anonymous":false},{"type":"event","name":"FeesDistributed","inputs":[{"name":"roundId","type":"uint256","indexed":true,"internalType":"uint256"}],"anonymous":false},{"type":"event","name":"FeesUpdated","inputs":[{"name":"roomEntryFee","type":"uint256","indexed":false,"internalType":"uint256"}],"anonymous":false},{"type":"event","name":"JoinedRoom","inputs":[{"name":"user","type":"address","indexed":true,"internalType":"address"},{"name":"roundId","type":"uint256","indexed":true,"internalType":"uint256"}],"anonymous":false},{"type":"event","name":"MarketResolved","inputs":[{"name":"roundId","type":"uint256","indexed":true,"internalType":"uint256"}],"anonymous":false},{"type":"event","name":"OwnershipTransferred","inputs":[{"name":"previousOwner","type":"address","indexed":true,"internalType":"address"},{"name":"newOwner","type":"address","indexed":true,"internalType":"address"}],"anonymous":false},{"type":"event","name":"PvpActionInvoked","inputs":[{"name":"verb","type":"string","indexed":true,"internalType":"string"},{"name":"target","type":"address","indexed":true,"internalType":"address"},{"name":"endTime","type":"uint40","indexed":false,"internalType":"uint40"},{"name":"parameters","type":"bytes","indexed":false,"internalType":"bytes"}],"anonymous":false},{"type":"event","name":"PvpActionRemoved","inputs":[{"name":"verb","type":"string","indexed":true,"internalType":"string"}],"anonymous":false},{"type":"event","name":"PvpActionsUpdated","inputs":[{"name":"verb","type":"string","indexed":true,"internalType":"string"},{"name":"category","type":"uint8","indexed":true,"internalType":"enum Room.PvpActionCategory"},{"name":"fee","type":"uint256","indexed":false,"internalType":"uint256"},{"name":"duration","type":"uint32","indexed":false,"internalType":"uint32"},{"name":"isNew","type":"bool","indexed":false,"internalType":"bool"},{"name":"isUpdate","type":"bool","indexed":false,"internalType":"bool"}],"anonymous":false},{"type":"event","name":"RoundDurationUpdated","inputs":[{"name":"oldDuration","type":"uint40","indexed":false,"internalType":"uint40"},{"name":"newDuration","type":"uint40","indexed":false,"internalType":"uint40"}],"anonymous":false},{"type":"event","name":"RoundStarted","inputs":[{"name":"roundId","type":"uint256","indexed":true,"internalType":"uint256"},{"name":"startTime","type":"uint40","indexed":false,"internalType":"uint40"},{"name":"endTime","type":"uint40","indexed":false,"internalType":"uint40"}],"anonymous":false},{"type":"event","name":"RoundStateUpdated","inputs":[{"name":"currentRoundId","type":"uint256","indexed":true,"internalType":"uint256"},{"name":"state","type":"uint8","indexed":false,"internalType":"enum Room.RoundState"}],"anonymous":false},{"type":"event","name":"WinningsClaimed","inputs":[{"name":"roundId","type":"uint256","indexed":true,"internalType":"uint256"},{"name":"user","type":"address","indexed":true,"internalType":"address"},{"name":"winnings","type":"uint256","indexed":false,"internalType":"uint256"}],"anonymous":false},{"type":"error","name":"OwnableInvalidOwner","inputs":[{"name":"owner","type":"address","internalType":"address"}]},{"type":"error","name":"OwnableUnauthorizedAccount","inputs":[{"name":"account","type":"address","internalType":"address"}]},{"type":"error","name":"ReentrancyGuardReentrantCall","inputs":[]},{"type":"error","name":"Room_ActionNotSupported","inputs":[]},{"type":"error","name":"Room_AgentAlreadyDecided","inputs":[]},{"type":"error","name":"Room_AgentAlreadyExists","inputs":[]},{"type":"error","name":"Room_AgentNotActive","inputs":[]},{"type":"error","name":"Room_AgentNotExists","inputs":[]},{"type":"error","name":"Room_InvalidAmount","inputs":[]},{"type":"error","name":"Room_InvalidBetType","inputs":[]},{"type":"error","name":"Room_InvalidPvpAction","inputs":[]},{"type":"error","name":"Room_InvalidRoundDuration","inputs":[]},{"type":"error","name":"Room_MaxAgentsReached","inputs":[]},{"type":"error","name":"Room_NoWinnings","inputs":[]},{"type":"error","name":"Room_NotAuthorized","inputs":[]},{"type":"error","name":"Room_NotGameMaster","inputs":[]},{"type":"error","name":"Room_RoundNotClosed","inputs":[{"name":"currentRoundId","type":"uint256","internalType":"uint256"}]},{"type":"error","name":"Room_SenderAlreadyClaimedWinnings","inputs":[]},{"type":"error","name":"Room_SenderHasNoBetInRound","inputs":[]},{"type":"error","name":"Room_StatusEffectAlreadyActive","inputs":[{"name":"verb","type":"string","internalType":"string"},{"name":"target","type":"address","internalType":"address"},{"name":"endTime","type":"uint40","internalType":"uint40"}]},{"type":"error","name":"Room_TransferFailed","inputs":[]},{"type":"error","name":"Room__AlreadyInitialized","inputs":[]}],"bytecode":{"object":"0x6080604052600560095f6101000a81548163ffffffff021916908363ffffffff1602179055505f600960046101000a81548163ffffffff021916908363ffffffff16021790555060b4600960086101000a81548164ffffffffff021916908364ffffffffff16021790555034801562000076575f80fd5b50335f73ffffffffffffffffffffffffffffffffffffffff168173ffffffffffffffffffffffffffffffffffffffff1603620000eb575f6040517f1e4fbdf7000000000000000000000000000000000000000000000000000000008152600401620000e291906200020e565b60405180910390fd5b620000fc816200010a60201b60201c565b506001808190555062000229565b5f805f9054906101000a900473ffffffffffffffffffffffffffffffffffffffff169050815f806101000a81548173ffffffffffffffffffffffffffffffffffffffff021916908373ffffffffffffffffffffffffffffffffffffffff1602179055508173ffffffffffffffffffffffffffffffffffffffff168173ffffffffffffffffffffffffffffffffffffffff167f8be0079c531659141344cd1fd0a4f28419497f9722a3daafe3b4186f6b6457e060405160405180910390a35050565b5f73ffffffffffffffffffffffffffffffffffffffff82169050919050565b5f620001f682620001cb565b9050919050565b6200020881620001ea565b82525050565b5f602082019050620002235f830184620001fd565b92915050565b615e8580620002375f395ff3fe608060405260043610610254575f3560e01c8063677bd9ff11610138578063bdf84ae7116100b5578063eac3fda411610079578063eac3fda4146108e6578063f15cc40614610910578063f2f4eb261461094c578063f2fde38b14610976578063f7cb789a1461099e578063fc0c546a146109c85761025b565b8063bdf84ae7146107cc578063c03fb87c146107f6578063c642e7bf14610832578063ddc6ac231461086e578063e8ce6c6e146108aa5761025b565b80638c65c81f116100fc5780638c65c81f146106e45780638da5cb5b1461072657806397a6278e14610750578063995982ec146107785780639cbe5efd146107a25761025b565b8063677bd9ff14610606578063715018a61461062e5780637592d541146106445780637d4510d91461068057806384e79842146106bc5761025b565b80632f88d7ba116101d1578063520d5e2511610195578063520d5e251461050a57806355e3f086146105465780635c51c5bc1461055c57806360691b0f1461058457806360b71d4e146105c057806364e0fb27146105ea5761025b565b80632f88d7ba146104145780633d8e24f3146104525780634245d5f0146104905780634b961e76146104b85780634d2a7941146104e25761025b565b80631602009a116102185780631602009a146103565780631a086bd01461037e5780631dc5670d1461039a578063204068ff146103d65780632b9b55b3146103fe5761025b565b806302d05d3f1461025f578063054bb186146102895780630a34d637146102c85780630cc8cbd4146102f257806312b19a131461031a5761025b565b3661025b57005b5f80fd5b34801561026a575f80fd5b506102736109f2565b6040516102809190614456565b60405180910390f35b348015610294575f80fd5b506102af60048036038101906102aa91906145bc565b610a17565b6040516102bf9493929190614726565b60405180910390f35b3480156102d3575f80fd5b506102dc610afc565b6040516102e99190614770565b60405180910390f35b3480156102fd575f80fd5b5061031860048036038101906103139190614800565b610b11565b005b348015610325575f80fd5b50610340600480360381019061033b9190614880565b610d7a565b60405161034d91906148ca565b60405180910390f35b348015610361575f80fd5b5061037c60048036038101906103779190614906565b610da7565b005b610398600480360381019061039391906149f9565b610eab565b005b3480156103a5575f80fd5b506103c060048036038101906103bb9190614a81565b6115ad565b6040516103cd9190614ad9565b60405180910390f35b3480156103e1575f80fd5b506103fc60048036038101906103f79190614c76565b611612565b005b348015610409575f80fd5b50610412611967565b005b34801561041f575f80fd5b5061043a60048036038101906104359190614d67565b6119e5565b60405161044993929190614d92565b60405180910390f35b34801561045d575f80fd5b5061047860048036038101906104739190614a81565b611a36565b60405161048793929190614dc7565b60405180910390f35b34801561049b575f80fd5b506104b660048036038101906104b19190614e26565b611aac565b005b3480156104c3575f80fd5b506104cc611beb565b6040516104d99190614770565b60405180910390f35b3480156104ed575f80fd5b5061050860048036038101906105039190614e74565b611c01565b005b348015610515575f80fd5b50610530600480360381019061052b9190614880565b611ef2565b60405161053d9190614456565b60405180910390f35b348015610551575f80fd5b5061055a611f2d565b005b348015610567575f80fd5b50610582600480360381019061057d9190614906565b6120df565b005b34801561058f575f80fd5b506105aa60048036038101906105a59190614d67565b6121e3565b6040516105b7919061508c565b60405180910390f35b3480156105cb575f80fd5b506105d461242d565b6040516105e191906150ac565b60405180910390f35b61060460048036038101906105ff91906150c5565b612433565b005b348015610611575f80fd5b5061062c60048036038101906106279190614880565b612a60565b005b348015610639575f80fd5b50610642612db9565b005b34801561064f575f80fd5b5061066a60048036038101906106659190614880565b612dcc565b6040516106779190615115565b60405180910390f35b34801561068b575f80fd5b506106a660048036038101906106a19190614a81565b612e72565b6040516106b391906151ff565b60405180910390f35b3480156106c7575f80fd5b506106e260048036038101906106dd9190614d67565b612f4e565b005b3480156106ef575f80fd5b5061070a60048036038101906107059190614880565b613192565b60405161071d979695949392919061525e565b60405180910390f35b348015610731575f80fd5b5061073a6131fc565b6040516107479190614456565b60405180910390f35b34801561075b575f80fd5b5061077660048036038101906107719190614d67565b613223565b005b348015610783575f80fd5b5061078c6135c6565b6040516107999190614ad9565b60405180910390f35b3480156107ad575f80fd5b506107b66135d9565b6040516107c391906150ac565b60405180910390f35b3480156107d7575f80fd5b506107e06135df565b6040516107ed9190614456565b60405180910390f35b348015610801575f80fd5b5061081c60048036038101906108179190614a81565b613604565b604051610829919061530b565b60405180910390f35b34801561083d575f80fd5b5061085860048036038101906108539190614880565b6136cb565b6040516108659190615324565b60405180910390f35b348015610879575f80fd5b50610894600480360381019061088f9190614880565b6136f3565b6040516108a191906148ca565b60405180910390f35b3480156108b5575f80fd5b506108d060048036038101906108cb91906145bc565b613720565b6040516108dd91906150ac565b60405180910390f35b3480156108f1575f80fd5b506108fa61374a565b60405161090791906153e5565b60405180910390f35b34801561091b575f80fd5b5061093660048036038101906109319190614a81565b6137d5565b60405161094391906150ac565b60405180910390f35b348015610957575f80fd5b50610960613ac2565b60405161096d9190615425565b60405180910390f35b348015610981575f80fd5b5061099c60048036038101906109979190614d67565b613ae7565b005b3480156109a9575f80fd5b506109b2613b6b565b6040516109bf91906148ca565b60405180910390f35b3480156109d3575f80fd5b506109dc613b82565b6040516109e99190614456565b60405180910390f35b60065f9054906101000a900473ffffffffffffffffffffffffffffffffffffffff1681565b600d818051602081018201805184825260208301602085012081835280955050505050505f91509050805f018054610a4e9061546b565b80601f0160208091040260200160405190810160405280929190818152602001828054610a7a9061546b565b8015610ac55780601f10610a9c57610100808354040283529160200191610ac5565b820191905f5260205f20905b815481529060010190602001808311610aa857829003601f168201915b505050505090806001015f9054906101000a900460ff1690806002015490806003015f9054906101000a900463ffffffff16905084565b60095f9054906101000a900463ffffffff1681565b60045f9054906101000a900473ffffffffffffffffffffffffffffffffffffffff1673ffffffffffffffffffffffffffffffffffffffff163373ffffffffffffffffffffffffffffffffffffffff1614610b97576040517ff953825e00000000000000000000000000000000000000000000000000000000815260040160405180910390fd5b5f604051602001610ba7906154c8565b60405160208183030381529060405280519060200120600d86604051610bcd919061550c565b90815260200160405180910390205f01604051602001610bed91906155b4565b604051602081830303815290604052805190602001201490506040518060800160405280868152602001856003811115610c2a57610c2961467d565b5b81526020018481526020018363ffffffff16815250600d86604051610c4f919061550c565b90815260200160405180910390205f820151815f019081610c709190615755565b506020820151816001015f6101000a81548160ff02191690836003811115610c9b57610c9a61467d565b5b0217905550604082015181600201556060820151816003015f6101000a81548163ffffffff021916908363ffffffff1602179055509050508015610d0c57600e85908060018154018082558091505060019003905f5260205f20015f909190919091509081610d0a9190615755565b505b836003811115610d1f57610d1e61467d565b5b85604051610d2d919061550c565b60405180910390207f9caf52b95ab86b68fe3e10e87243b904a71abef70d46ba04f4382c85406332218585858615604051610d6b9493929190615824565b60405180910390a35050505050565b5f600a5f8381526020019081526020015f205f0160069054906101000a900464ffffffffff169050919050565b60045f9054906101000a900473ffffffffffffffffffffffffffffffffffffffff1673ffffffffffffffffffffffffffffffffffffffff163373ffffffffffffffffffffffffffffffffffffffff1614610e2d576040517ff953825e00000000000000000000000000000000000000000000000000000000815260040160405180910390fd5b5f600a5f60075481526020019081526020015f20905081815f015f6101000a81548160ff02191690836003811115610e6857610e6761467d565b5b02179055506007547f5c8a99681bc622d59d60c72ee772a4b3ad289cba816b69f0015522c426fbc61883604051610e9f9190615324565b60405180910390a25050565b61010081511115610ee8576040517f3fa5794000000000000000000000000000000000000000000000000000000000815260040160405180910390fd5b5f600a5f60075481526020019081526020015f2090506009600d9054906101000a900460ff16610f9257610f606040518060400160405280600f81526020017f5076502069732064697361626c656400000000000000000000000000000000008152506009600d9054906101000a900460ff16613ba7565b6040517f4205010600000000000000000000000000000000000000000000000000000000815260040160405180910390fd5b5f600d84604051610fa3919061550c565b90815260200160405180910390206040518060800160405290815f82018054610fcb9061546b565b80601f0160208091040260200160405190810160405280929190818152602001828054610ff79061546b565b80156110425780601f1061101957610100808354040283529160200191611042565b820191905f5260205f20905b81548152906001019060200180831161102557829003601f168201915b50505050508152602001600182015f9054906101000a900460ff16600381111561106f5761106e61467d565b5b60038111156110815761108061467d565b5b815260200160028201548152602001600382015f9054906101000a900463ffffffff1663ffffffff1663ffffffff168152505090506040516020016110c5906154c8565b60405160208183030381529060405280519060200120815f01516040516020016110ef919061550c565b604051602081830303815290604052805190602001200361113c576040517f3fa5794000000000000000000000000000000000000000000000000000000000815260040160405180910390fd5b80604001513414611179576040517fe159ab8a00000000000000000000000000000000000000000000000000000000815260040160405180910390fd5b5f826008015f8773ffffffffffffffffffffffffffffffffffffffff1673ffffffffffffffffffffffffffffffffffffffff1681526020019081526020015f2090505f80805f90505b838054905081101561131d57876040516020016111df919061550c565b6040516020818303038152906040528051906020012084828154811061120857611207615867565b5b905f5260205f2090600302015f0160405160200161122691906155b4565b604051602081830303815290604052805190602001200361130a57600192504264ffffffffff168482815481106112605761125f615867565b5b905f5260205f20906003020160010160149054906101000a900464ffffffffff1664ffffffffff1611156113025787898583815481106112a3576112a2615867565b5b905f5260205f20906003020160010160149054906101000a900464ffffffffff166040517fbd4a123d0000000000000000000000000000000000000000000000000000000081526004016112f993929190615894565b60405180910390fd5b80915061131d565b8080611315906158fd565b9150506111c2565b505f846060015163ffffffff16426113359190615944565b9050821561143b5760405180608001604052808981526020013373ffffffffffffffffffffffffffffffffffffffff1681526020018264ffffffffff1681526020018881525084838154811061138e5761138d615867565b5b905f5260205f2090600302015f820151815f0190816113ad9190615755565b506020820151816001015f6101000a81548173ffffffffffffffffffffffffffffffffffffffff021916908373ffffffffffffffffffffffffffffffffffffffff16021790555060408201518160010160146101000a81548164ffffffffff021916908364ffffffffff160217905550606082015181600201908161143291906159cf565b5090505061153c565b8360405180608001604052808a81526020013373ffffffffffffffffffffffffffffffffffffffff1681526020018364ffffffffff16815260200189815250908060018154018082558091505060019003905f5260205f2090600302015f909190919091505f820151815f0190816114b39190615755565b506020820151816001015f6101000a81548173ffffffffffffffffffffffffffffffffffffffff021916908373ffffffffffffffffffffffffffffffffffffffff16021790555060408201518160010160146101000a81548164ffffffffff021916908364ffffffffff160217905550606082015181600201908161153891906159cf565b5050505b8873ffffffffffffffffffffffffffffffffffffffff1688604051611561919061550c565b60405180910390207f9a3f7bc2c58e100dba3994bdf8854c457b542d732ef307f104ded4de8e7dad5e838a60405161159a929190615ae6565b60405180910390a3505050505050505050565b5f600a5f8481526020019081526020015f206007015f8373ffffffffffffffffffffffffffffffffffffffff1673ffffffffffffffffffffffffffffffffffffffff1681526020019081526020015f205f9054906101000a900460ff16905092915050565b600f5f9054906101000a900460ff1615611658576040517fab1905f300000000000000000000000000000000000000000000000000000000815260040160405180910390fd5b8660045f6101000a81548173ffffffffffffffffffffffffffffffffffffffff021916908373ffffffffffffffffffffffffffffffffffffffff1602179055508560055f6101000a81548173ffffffffffffffffffffffffffffffffffffffff021916908373ffffffffffffffffffffffffffffffffffffffff1602179055508460065f6101000a81548173ffffffffffffffffffffffffffffffffffffffff021916908373ffffffffffffffffffffffffffffffffffffffff1602179055508360025f6101000a81548173ffffffffffffffffffffffffffffffffffffffff021916908373ffffffffffffffffffffffffffffffffffffffff16021790555060016009600d6101000a81548160ff0219169083151502179055505f5b835181101561190157604051806060016040528084838151811061179c5761179b615867565b5b602002602001015173ffffffffffffffffffffffffffffffffffffffff1681526020018383815181106117d2576117d1615867565b5b6020026020010151815260200160011515815250600b5f8684815181106117fc576117fb615867565b5b602002602001015173ffffffffffffffffffffffffffffffffffffffff1673ffffffffffffffffffffffffffffffffffffffff1681526020019081526020015f205f820151815f015f6101000a81548173ffffffffffffffffffffffffffffffffffffffff021916908373ffffffffffffffffffffffffffffffffffffffff160217905550602082015181600101556040820151816002015f6101000a81548160ff0219169083151502179055509050506009600481819054906101000a900463ffffffff16809291906118cf90615b14565b91906101000a81548163ffffffff021916908363ffffffff1602179055505080806118f9906158fd565b915050611775565b506001600f5f6101000a81548160ff0219169083151502179055505f600a5f60075481526020019081526020015f2090506001815f015f6101000a81548160ff021916908360038111156119585761195761467d565b5b02179055505050505050505050565b5f600a5f60075481526020019081526020015f209050611988600754613c43565b6003815f015f6101000a81548160ff021916908360038111156119ae576119ad61467d565b5b02179055506007547f93608ecbcf057462da63f5aef413ce7f78c5e1b3bb51859d77a40845ece2bfc360405160405180910390a250565b600b602052805f5260405f205f91509050805f015f9054906101000a900473ffffffffffffffffffffffffffffffffffffffff1690806001015490806002015f9054906101000a900460ff16905083565b5f805f80600a5f8781526020019081526020015f2090505f816006015f8773ffffffffffffffffffffffffffffffffffffffff1673ffffffffffffffffffffffffffffffffffffffff1681526020019081526020015f209050805f01548160020154826001015494509450945050509250925092565b60045f9054906101000a900473ffffffffffffffffffffffffffffffffffffffff1673ffffffffffffffffffffffffffffffffffffffff163373ffffffffffffffffffffffffffffffffffffffff1614611b32576040517ff953825e00000000000000000000000000000000000000000000000000000000815260040160405180910390fd5b5f600960089054906101000a900464ffffffffff169050600a8264ffffffffff161015611b8b576040517f2f6b4e7a00000000000000000000000000000000000000000000000000000000815260040160405180910390fd5b81600960086101000a81548164ffffffffff021916908364ffffffffff1602179055507fc3214c3dd3810a0cf3a56a5188663156303bc4941f34d41eeb3d59a49d53e1d88183604051611bdf929190615b3f565b60405180910390a15050565b600960049054906101000a900463ffffffff1681565b60045f9054906101000a900473ffffffffffffffffffffffffffffffffffffffff1673ffffffffffffffffffffffffffffffffffffffff163373ffffffffffffffffffffffffffffffffffffffff1614611c87576040517ff953825e00000000000000000000000000000000000000000000000000000000815260040160405180910390fd5b5f6004811115611c9a57611c9961467d565b5b816004811115611cad57611cac61467d565b5b03611ce4576040517f7a9e27a200000000000000000000000000000000000000000000000000000000815260040160405180910390fd5b60045f9054906101000a900473ffffffffffffffffffffffffffffffffffffffff1673ffffffffffffffffffffffffffffffffffffffff163373ffffffffffffffffffffffffffffffffffffffff1614611d6a576040517f0293ac4d00000000000000000000000000000000000000000000000000000000815260040160405180910390fd5b600480811115611d7d57611d7c61467d565b5b816004811115611d9057611d8f61467d565b5b03611dc7576040517ff953825e00000000000000000000000000000000000000000000000000000000815260040160405180910390fd5b5f600a5f60075481526020019081526020015f2090505f816006015f8573ffffffffffffffffffffffffffffffffffffffff1673ffffffffffffffffffffffffffffffffffffffff1681526020019081526020015f2090508060030160019054906101000a900460ff1615611e68576040517fe7712cf500000000000000000000000000000000000000000000000000000000815260040160405180910390fd5b82816003015f6101000a81548160ff02191690836004811115611e8e57611e8d61467d565b5b021790555060018160030160016101000a81548160ff0219169083151502179055506007547f334c88bccde74f5b50d93ab8a27c0191054e5a18419a1a8bc98aafe5d290100b8585604051611ee4929190615b75565b60405180910390a250505050565b60088181548110611f01575f80fd5b905f5260205f20015f915054906101000a900473ffffffffffffffffffffffffffffffffffffffff1681565b60045f9054906101000a900473ffffffffffffffffffffffffffffffffffffffff1673ffffffffffffffffffffffffffffffffffffffff163373ffffffffffffffffffffffffffffffffffffffff1614611fb3576040517ff953825e00000000000000000000000000000000000000000000000000000000815260040160405180910390fd5b60075f815480929190611fc5906158fd565b91905055505f600a5f60075481526020019081526020015f20905042815f0160016101000a81548164ffffffffff021916908364ffffffffff160217905550600960089054906101000a900464ffffffffff1664ffffffffff164261202a9190615944565b815f0160066101000a81548164ffffffffff021916908364ffffffffff1602179055506001815f015f6101000a81548160ff021916908360038111156120735761207261467d565b5b02179055506007547f15b9e5266d8603010d5881085e583c49c7b2420c2a5e498c36d1e86a9b92a441825f0160019054906101000a900464ffffffffff16835f0160069054906101000a900464ffffffffff166040516120d4929190615b3f565b60405180910390a250565b60045f9054906101000a900473ffffffffffffffffffffffffffffffffffffffff1673ffffffffffffffffffffffffffffffffffffffff163373ffffffffffffffffffffffffffffffffffffffff1614612165576040517ff953825e00000000000000000000000000000000000000000000000000000000815260040160405180910390fd5b5f600a5f60075481526020019081526020015f20905081815f015f6101000a81548160ff021916908360038111156121a05761219f61467d565b5b02179055506007547f5c8a99681bc622d59d60c72ee772a4b3ad289cba816b69f0015522c426fbc618836040516121d79190615324565b60405180910390a25050565b6060600a5f60075481526020019081526020015f206008015f8373ffffffffffffffffffffffffffffffffffffffff1673ffffffffffffffffffffffffffffffffffffffff1681526020019081526020015f20805480602002602001604051908101604052809291908181526020015f905b82821015612422578382905f5260205f2090600302016040518060800160405290815f820180546122859061546b565b80601f01602080910402602001604051908101604052809291908181526020018280546122b19061546b565b80156122fc5780601f106122d3576101008083540402835291602001916122fc565b820191905f5260205f20905b8154815290600101906020018083116122df57829003601f168201915b50505050508152602001600182015f9054906101000a900473ffffffffffffffffffffffffffffffffffffffff1673ffffffffffffffffffffffffffffffffffffffff1673ffffffffffffffffffffffffffffffffffffffff1681526020016001820160149054906101000a900464ffffffffff1664ffffffffff1664ffffffffff1681526020016002820180546123939061546b565b80601f01602080910402602001604051908101604052809291908181526020018280546123bf9061546b565b801561240a5780601f106123e15761010080835404028352916020019161240a565b820191905f5260205f20905b8154815290600101906020018083116123ed57829003601f168201915b50505050508152505081526020019060010190612255565b505050509050919050565b60035481565b61243b6141bb565b60048081111561244e5761244d61467d565b5b8260048111156124615761246061467d565b5b148061249057505f600481111561247b5761247a61467d565b5b82600481111561248e5761248d61467d565b5b145b156124c7576040517f7a9e27a200000000000000000000000000000000000000000000000000000000815260040160405180910390fd5b5f600a5f60075481526020019081526020015f2090505f73ffffffffffffffffffffffffffffffffffffffff16600b5f8673ffffffffffffffffffffffffffffffffffffffff1673ffffffffffffffffffffffffffffffffffffffff1681526020019081526020015f205f015f9054906101000a900473ffffffffffffffffffffffffffffffffffffffff1673ffffffffffffffffffffffffffffffffffffffff16036125a0576040517fc096c9d900000000000000000000000000000000000000000000000000000000815260040160405180910390fd5b5f82116125d9576040517fe159ab8a00000000000000000000000000000000000000000000000000000000815260040160405180910390fd5b5f816005015f3373ffffffffffffffffffffffffffffffffffffffff1673ffffffffffffffffffffffffffffffffffffffff1681526020019081526020015f2090505f826006015f8773ffffffffffffffffffffffffffffffffffffffff1673ffffffffffffffffffffffffffffffffffffffff1681526020019081526020015f2090505f8260010154111561289b576001600481111561267d5761267c61467d565b5b825f015f9054906101000a900460ff16600481111561269f5761269e61467d565b5b036126c6578160010154815f015f8282546126ba9190615b9c565b92505081905550612780565b600260048111156126da576126d961467d565b5b825f015f9054906101000a900460ff1660048111156126fc576126fb61467d565b5b03612724578160010154816001015f8282546127189190615b9c565b9250508190555061277f565b600360048111156127385761273761467d565b5b825f015f9054906101000a900460ff16600481111561275a5761275961467d565b5b0361277e578160010154816002015f8282546127769190615b9c565b925050819055505b5b5b8160010154841015612841575f84836001015461279d9190615b9c565b90505f3373ffffffffffffffffffffffffffffffffffffffff16826040516127c490615bf9565b5f6040518083038185875af1925050503d805f81146127fe576040519150601f19603f3d011682016040523d82523d5f602084013e612803565b606091505b505090508061283e576040517f52311b8a00000000000000000000000000000000000000000000000000000000815260040160405180910390fd5b50505b81600101548411156128965781600101548461285d9190615b9c565b3414612895576040517fe159ab8a00000000000000000000000000000000000000000000000000000000815260040160405180910390fd5b5b6128d5565b8334146128d4576040517fe159ab8a00000000000000000000000000000000000000000000000000000000815260040160405180910390fd5b5b600160048111156128e9576128e861467d565b5b8560048111156128fc576128fb61467d565b5b0361291f5783815f015f8282546129139190615944565b925050819055506129b3565b600260048111156129335761293261467d565b5b8560048111156129465761294561467d565b5b0361296a5783816001015f82825461295e9190615944565b925050819055506129b2565b6003600481111561297e5761297d61467d565b5b8560048111156129915761299061467d565b5b036129b15783816002015f8282546129a99190615944565b925050819055505b5b5b84825f015f6101000a81548160ff021916908360048111156129d8576129d761467d565b5b02179055508382600101819055508573ffffffffffffffffffffffffffffffffffffffff166007543373ffffffffffffffffffffffffffffffffffffffff167f47d9a2d4c61e8c56439cdfd35189d9a016d48f2c0be9cc16ea0627a7621c7d188888604051612a48929190615c0d565b60405180910390a4505050612a5b614201565b505050565b612a686141bb565b5f600a5f8381526020019081526020015f209050600380811115612a8f57612a8e61467d565b5b815f015f9054906101000a900460ff166003811115612ab157612ab061467d565b5b14612af357816040517f7bcea7bc000000000000000000000000000000000000000000000000000000008152600401612aea91906150ac565b60405180910390fd5b5f6004811115612b0657612b0561467d565b5b816005015f3373ffffffffffffffffffffffffffffffffffffffff1673ffffffffffffffffffffffffffffffffffffffff1681526020019081526020015f205f015f9054906101000a900460ff166004811115612b6657612b6561467d565b5b03612b9d576040517fe56ad37400000000000000000000000000000000000000000000000000000000815260040160405180910390fd5b806007015f3373ffffffffffffffffffffffffffffffffffffffff1673ffffffffffffffffffffffffffffffffffffffff1681526020019081526020015f205f9054906101000a900460ff1615612c20576040517f948d731600000000000000000000000000000000000000000000000000000000815260040160405180910390fd5b5f612c2b83336137d5565b90505f8103612c66576040517f7707585900000000000000000000000000000000000000000000000000000000815260040160405180910390fd5b6001826007015f3373ffffffffffffffffffffffffffffffffffffffff1673ffffffffffffffffffffffffffffffffffffffff1681526020019081526020015f205f6101000a81548160ff0219169083151502179055505f3373ffffffffffffffffffffffffffffffffffffffff1682604051612ce290615bf9565b5f6040518083038185875af1925050503d805f8114612d1c576040519150601f19603f3d011682016040523d82523d5f602084013e612d21565b606091505b5050905080612d5c576040517f52311b8a00000000000000000000000000000000000000000000000000000000815260040160405180910390fd5b3373ffffffffffffffffffffffffffffffffffffffff16847f5380cf6fe903b40c6d5a9e0dfbca2f3a423f0a21520b4d5947ed5169bdba946d84604051612da391906150ac565b60405180910390a3505050612db6614201565b50565b612dc161420a565b612dca5f614291565b565b600e8181548110612ddb575f80fd5b905f5260205f20015f915090508054612df39061546b565b80601f0160208091040260200160405190810160405280929190818152602001828054612e1f9061546b565b8015612e6a5780601f10612e4157610100808354040283529160200191612e6a565b820191905f5260205f20905b815481529060010190602001808311612e4d57829003601f168201915b505050505081565b612e7a61439d565b600a5f8481526020019081526020015f206006015f8373ffffffffffffffffffffffffffffffffffffffff1673ffffffffffffffffffffffffffffffffffffffff1681526020019081526020015f206040518060a00160405290815f82015481526020016001820154815260200160028201548152602001600382015f9054906101000a900460ff166004811115612f1557612f1461467d565b5b6004811115612f2757612f2661467d565b5b81526020016003820160019054906101000a900460ff161515151581525050905092915050565b60045f9054906101000a900473ffffffffffffffffffffffffffffffffffffffff1673ffffffffffffffffffffffffffffffffffffffff163373ffffffffffffffffffffffffffffffffffffffff1614612fd4576040517ff953825e00000000000000000000000000000000000000000000000000000000815260040160405180910390fd5b60095f9054906101000a900463ffffffff1663ffffffff1660088054905010613029576040517f28e8d0c900000000000000000000000000000000000000000000000000000000815260040160405180910390fd5b5f73ffffffffffffffffffffffffffffffffffffffff16600b5f8373ffffffffffffffffffffffffffffffffffffffff1673ffffffffffffffffffffffffffffffffffffffff1681526020019081526020015f205f015f9054906101000a900473ffffffffffffffffffffffffffffffffffffffff1673ffffffffffffffffffffffffffffffffffffffff16146130ec576040517f279f18a300000000000000000000000000000000000000000000000000000000815260040160405180910390fd5b600881908060018154018082558091505060019003905f5260205f20015f9091909190916101000a81548173ffffffffffffffffffffffffffffffffffffffff021916908373ffffffffffffffffffffffffffffffffffffffff1602179055508073ffffffffffffffffffffffffffffffffffffffff167ff68e73cec97f2d70aa641fb26e87a4383686e2efacb648f2165aeb02ac562ec560405160405180910390a250565b600a602052805f5260405f205f91509050805f015f9054906101000a900460ff1690805f0160019054906101000a900464ffffffffff1690805f0160069054906101000a900464ffffffffff16908060010154908060020154908060030154908060040154905087565b5f805f9054906101000a900473ffffffffffffffffffffffffffffffffffffffff16905090565b60045f9054906101000a900473ffffffffffffffffffffffffffffffffffffffff1673ffffffffffffffffffffffffffffffffffffffff163373ffffffffffffffffffffffffffffffffffffffff16146132a9576040517ff953825e00000000000000000000000000000000000000000000000000000000815260040160405180910390fd5b5f73ffffffffffffffffffffffffffffffffffffffff16600b5f8373ffffffffffffffffffffffffffffffffffffffff1673ffffffffffffffffffffffffffffffffffffffff1681526020019081526020015f205f015f9054906101000a900473ffffffffffffffffffffffffffffffffffffffff1673ffffffffffffffffffffffffffffffffffffffff160361336c576040517fe5676f1800000000000000000000000000000000000000000000000000000000815260040160405180910390fd5b5f600b5f8373ffffffffffffffffffffffffffffffffffffffff1673ffffffffffffffffffffffffffffffffffffffff1681526020019081526020015f206002015f6101000a81548160ff0219169083151502179055505f805b600880549050811015613547578273ffffffffffffffffffffffffffffffffffffffff16600882815481106133fe576133fd615867565b5b905f5260205f20015f9054906101000a900473ffffffffffffffffffffffffffffffffffffffff1673ffffffffffffffffffffffffffffffffffffffff160361353457600860016008805490506134559190615b9c565b8154811061346657613465615867565b5b905f5260205f20015f9054906101000a900473ffffffffffffffffffffffffffffffffffffffff16600882815481106134a2576134a1615867565b5b905f5260205f20015f6101000a81548173ffffffffffffffffffffffffffffffffffffffff021916908373ffffffffffffffffffffffffffffffffffffffff16021790555060088054806134f9576134f8615c34565b5b600190038181905f5260205f20015f6101000a81549073ffffffffffffffffffffffffffffffffffffffff0219169055905560019150613547565b808061353f906158fd565b9150506133c6565b508061357f576040517fe5676f1800000000000000000000000000000000000000000000000000000000815260040160405180910390fd5b8173ffffffffffffffffffffffffffffffffffffffff167fed9c8ad8d5a0a66898ea49d2956929c93ae2e8bd50281b2ed897c5d1a6737e0b60405160405180910390a25050565b6009600d9054906101000a900460ff1681565b60075481565b60045f9054906101000a900473ffffffffffffffffffffffffffffffffffffffff1681565b61360c6143db565b600a5f8481526020019081526020015f206005015f8373ffffffffffffffffffffffffffffffffffffffff1673ffffffffffffffffffffffffffffffffffffffff1681526020019081526020015f206040518060600160405290815f82015f9054906101000a900460ff1660048111156136895761368861467d565b5b600481111561369b5761369a61467d565b5b815260200160018201548152602001600282015f9054906101000a900460ff161515151581525050905092915050565b5f600a5f8381526020019081526020015f205f015f9054906101000a900460ff169050919050565b5f600a5f8381526020019081526020015f205f0160019054906101000a900464ffffffffff169050919050565b5f600d82604051613731919061550c565b9081526020016040518091039020600201549050919050565b606060088054806020026020016040519081016040528092919081815260200182805480156137cb57602002820191905f5260205f20905b815f9054906101000a900473ffffffffffffffffffffffffffffffffffffffff1673ffffffffffffffffffffffffffffffffffffffff1681526020019060010190808311613782575b5050505050905090565b5f80600a5f8581526020019081526020015f2090505f805b600880549050811015613a64575f6008828154811061380f5761380e615867565b5b905f5260205f20015f9054906101000a900473ffffffffffffffffffffffffffffffffffffffff1690505f846006015f8373ffffffffffffffffffffffffffffffffffffffff1673ffffffffffffffffffffffffffffffffffffffff1681526020019081526020015f2090505f856005015f8973ffffffffffffffffffffffffffffffffffffffff1673ffffffffffffffffffffffffffffffffffffffff1681526020019081526020015f2090508160030160019054906101000a900460ff16801561391d5750816003015f9054906101000a900460ff1660048111156138f9576138f861467d565b5b815f015f9054906101000a900460ff16600481111561391b5761391a61467d565b5b145b15613a4e575f8083600201548460010154855f015461393c9190615944565b6139469190615944565b90506001600481111561395c5761395b61467d565b5b835f015f9054906101000a900460ff16600481111561397e5761397d61467d565b5b0361398e57835f01549150613a1a565b600260048111156139a2576139a161467d565b5b835f015f9054906101000a900460ff1660048111156139c4576139c361467d565b5b036139d55783600101549150613a19565b600360048111156139e9576139e861467d565b5b835f015f9054906101000a900460ff166004811115613a0b57613a0a61467d565b5b03613a1857836002015491505b5b5b5f821115613a4b5781818460010154613a339190615c61565b613a3d9190615ccf565b87613a489190615944565b96505b50505b5050508080613a5c906158fd565b9150506137ed565b505f8103613ab7575f826005015f8673ffffffffffffffffffffffffffffffffffffffff1673ffffffffffffffffffffffffffffffffffffffff1681526020019081526020015f20905080600101549150505b809250505092915050565b60025f9054906101000a900473ffffffffffffffffffffffffffffffffffffffff1681565b613aef61420a565b5f73ffffffffffffffffffffffffffffffffffffffff168173ffffffffffffffffffffffffffffffffffffffff1603613b5f575f6040517f1e4fbdf7000000000000000000000000000000000000000000000000000000008152600401613b569190614456565b60405180910390fd5b613b6881614291565b50565b600960089054906101000a900464ffffffffff1681565b60055f9054906101000a900473ffffffffffffffffffffffffffffffffffffffff1681565b613c3f8282604051602401613bbd929190615cff565b6040516020818303038152906040527fc3b55635000000000000000000000000000000000000000000000000000000007bffffffffffffffffffffffffffffffffffffffffffffffffffffffff19166020820180517bffffffffffffffffffffffffffffffffffffffffffffffffffffffff8381831617835250505050614352565b5050565b5f600a5f8381526020019081526020015f2090505f816001015490505f805f60025f9054906101000a900473ffffffffffffffffffffffffffffffffffffffff1673ffffffffffffffffffffffffffffffffffffffff1663db8d55f16040518163ffffffff1660e01b815260040160a060405180830381865afa158015613ccc573d5f803e3d5ffd5b505050506040513d601f19601f82011682018060405250810190613cf09190615d41565b94509450945050505f60025f9054906101000a900473ffffffffffffffffffffffffffffffffffffffff1673ffffffffffffffffffffffffffffffffffffffff1663e1f1c4a76040518163ffffffff1660e01b8152600401602060405180830381865afa158015613d63573d5f803e3d5ffd5b505050506040513d601f19601f82011682018060405250810190613d879190615db8565b90505f818587613d979190615c61565b613da19190615ccf565b90505f828588613db19190615c61565b613dbb9190615ccf565b90505f838589613dcb9190615c61565b613dd59190615ccf565b90505f60065f9054906101000a900473ffffffffffffffffffffffffffffffffffffffff1673ffffffffffffffffffffffffffffffffffffffff1684604051613e1d90615bf9565b5f6040518083038185875af1925050503d805f8114613e57576040519150601f19603f3d011682016040523d82523d5f602084013e613e5c565b606091505b5050905080613e97576040517f52311b8a00000000000000000000000000000000000000000000000000000000815260040160405180910390fd5b5f60088054905090505f81111561404e575f8185613eb59190615ccf565b90505f5b8281101561404b575f60088281548110613ed657613ed5615867565b5b905f5260205f20015f9054906101000a900473ffffffffffffffffffffffffffffffffffffffff1690505f600b5f8373ffffffffffffffffffffffffffffffffffffffff1673ffffffffffffffffffffffffffffffffffffffff1681526020019081526020015f205f015f9054906101000a900473ffffffffffffffffffffffffffffffffffffffff1690505f73ffffffffffffffffffffffffffffffffffffffff168173ffffffffffffffffffffffffffffffffffffffff1614614036575f8173ffffffffffffffffffffffffffffffffffffffff1685604051613fba90615bf9565b5f6040518083038185875af1925050503d805f8114613ff4576040519150601f19603f3d011682016040523d82523d5f602084013e613ff9565b606091505b5050905080614034576040517f52311b8a00000000000000000000000000000000000000000000000000000000815260040160405180910390fd5b505b50508080614043906158fd565b915050613eb9565b50505b5f60025f9054906101000a900473ffffffffffffffffffffffffffffffffffffffff1673ffffffffffffffffffffffffffffffffffffffff16634162169f6040518163ffffffff1660e01b8152600401602060405180830381865afa1580156140b9573d5f803e3d5ffd5b505050506040513d601f19601f820116820180604052508101906140dd9190615df7565b90505f8173ffffffffffffffffffffffffffffffffffffffff168560405161410490615bf9565b5f6040518083038185875af1925050503d805f811461413e576040519150601f19603f3d011682016040523d82523d5f602084013e614143565b606091505b505090508061417e576040517f52311b8a00000000000000000000000000000000000000000000000000000000815260040160405180910390fd5b8d7f8959421a1320789a49eeec01a4750caf8a30733c3db14f000d84484df89300f960405160405180910390a25050505050505050505050505050565b6002600154036141f7576040517f3ee5aeb500000000000000000000000000000000000000000000000000000000815260040160405180910390fd5b6002600181905550565b60018081905550565b61421261436c565b73ffffffffffffffffffffffffffffffffffffffff166142306131fc565b73ffffffffffffffffffffffffffffffffffffffff161461428f5761425361436c565b6040517f118cdaa70000000000000000000000000000000000000000000000000000000081526004016142869190614456565b60405180910390fd5b565b5f805f9054906101000a900473ffffffffffffffffffffffffffffffffffffffff169050815f806101000a81548173ffffffffffffffffffffffffffffffffffffffff021916908373ffffffffffffffffffffffffffffffffffffffff1602179055508173ffffffffffffffffffffffffffffffffffffffff168173ffffffffffffffffffffffffffffffffffffffff167f8be0079c531659141344cd1fd0a4f28419497f9722a3daafe3b4186f6b6457e060405160405180910390a35050565b61436981614361614373614392565b63ffffffff16565b50565b5f33905090565b5f6a636f6e736f6c652e6c6f6790505f80835160208501845afa505050565b61440d819050919050565b6040518060a001604052805f81526020015f81526020015f81526020015f60048111156143cd576143cc61467d565b5b81526020015f151581525090565b60405180606001604052805f60048111156143f9576143f861467d565b5b81526020015f81526020015f151581525090565b614415615e22565b565b5f73ffffffffffffffffffffffffffffffffffffffff82169050919050565b5f61444082614417565b9050919050565b61445081614436565b82525050565b5f6020820190506144695f830184614447565b92915050565b5f604051905090565b5f80fd5b5f80fd5b5f80fd5b5f80fd5b5f601f19601f8301169050919050565b7f4e487b71000000000000000000000000000000000000000000000000000000005f52604160045260245ffd5b6144ce82614488565b810181811067ffffffffffffffff821117156144ed576144ec614498565b5b80604052505050565b5f6144ff61446f565b905061450b82826144c5565b919050565b5f67ffffffffffffffff82111561452a57614529614498565b5b61453382614488565b9050602081019050919050565b828183375f83830152505050565b5f61456061455b84614510565b6144f6565b90508281526020810184848401111561457c5761457b614484565b5b614587848285614540565b509392505050565b5f82601f8301126145a3576145a2614480565b5b81356145b384826020860161454e565b91505092915050565b5f602082840312156145d1576145d0614478565b5b5f82013567ffffffffffffffff8111156145ee576145ed61447c565b5b6145fa8482850161458f565b91505092915050565b5f81519050919050565b5f82825260208201905092915050565b5f5b8381101561463a57808201518184015260208101905061461f565b5f8484015250505050565b5f61464f82614603565b614659818561460d565b935061466981856020860161461d565b61467281614488565b840191505092915050565b7f4e487b71000000000000000000000000000000000000000000000000000000005f52602160045260245ffd5b600481106146bb576146ba61467d565b5b50565b5f8190506146cb826146aa565b919050565b5f6146da826146be565b9050919050565b6146ea816146d0565b82525050565b5f819050919050565b614702816146f0565b82525050565b5f63ffffffff82169050919050565b61472081614708565b82525050565b5f6080820190508181035f83015261473e8187614645565b905061474d60208301866146e1565b61475a60408301856146f9565b6147676060830184614717565b95945050505050565b5f6020820190506147835f830184614717565b92915050565b60048110614795575f80fd5b50565b5f813590506147a681614789565b92915050565b6147b5816146f0565b81146147bf575f80fd5b50565b5f813590506147d0816147ac565b92915050565b6147df81614708565b81146147e9575f80fd5b50565b5f813590506147fa816147d6565b92915050565b5f805f806080858703121561481857614817614478565b5b5f85013567ffffffffffffffff8111156148355761483461447c565b5b6148418782880161458f565b945050602061485287828801614798565b9350506040614863878288016147c2565b9250506060614874878288016147ec565b91505092959194509250565b5f6020828403121561489557614894614478565b5b5f6148a2848285016147c2565b91505092915050565b5f64ffffffffff82169050919050565b6148c4816148ab565b82525050565b5f6020820190506148dd5f8301846148bb565b92915050565b600481106148ef575f80fd5b50565b5f81359050614900816148e3565b92915050565b5f6020828403121561491b5761491a614478565b5b5f614928848285016148f2565b91505092915050565b61493a81614436565b8114614944575f80fd5b50565b5f8135905061495581614931565b92915050565b5f67ffffffffffffffff82111561497557614974614498565b5b61497e82614488565b9050602081019050919050565b5f61499d6149988461495b565b6144f6565b9050828152602081018484840111156149b9576149b8614484565b5b6149c4848285614540565b509392505050565b5f82601f8301126149e0576149df614480565b5b81356149f084826020860161498b565b91505092915050565b5f805f60608486031215614a1057614a0f614478565b5b5f614a1d86828701614947565b935050602084013567ffffffffffffffff811115614a3e57614a3d61447c565b5b614a4a8682870161458f565b925050604084013567ffffffffffffffff811115614a6b57614a6a61447c565b5b614a77868287016149cc565b9150509250925092565b5f8060408385031215614a9757614a96614478565b5b5f614aa4858286016147c2565b9250506020614ab585828601614947565b9150509250929050565b5f8115159050919050565b614ad381614abf565b82525050565b5f602082019050614aec5f830184614aca565b92915050565b5f67ffffffffffffffff821115614b0c57614b0b614498565b5b602082029050602081019050919050565b5f80fd5b5f614b33614b2e84614af2565b6144f6565b90508083825260208201905060208402830185811115614b5657614b55614b1d565b5b835b81811015614b7f5780614b6b8882614947565b845260208401935050602081019050614b58565b5050509392505050565b5f82601f830112614b9d57614b9c614480565b5b8135614bad848260208601614b21565b91505092915050565b5f67ffffffffffffffff821115614bd057614bcf614498565b5b602082029050602081019050919050565b5f614bf3614bee84614bb6565b6144f6565b90508083825260208201905060208402830185811115614c1657614c15614b1d565b5b835b81811015614c3f5780614c2b88826147c2565b845260208401935050602081019050614c18565b5050509392505050565b5f82601f830112614c5d57614c5c614480565b5b8135614c6d848260208601614be1565b91505092915050565b5f805f805f805f60e0888a031215614c9157614c90614478565b5b5f614c9e8a828b01614947565b9750506020614caf8a828b01614947565b9650506040614cc08a828b01614947565b9550506060614cd18a828b01614947565b945050608088013567ffffffffffffffff811115614cf257614cf161447c565b5b614cfe8a828b01614b89565b93505060a088013567ffffffffffffffff811115614d1f57614d1e61447c565b5b614d2b8a828b01614b89565b92505060c088013567ffffffffffffffff811115614d4c57614d4b61447c565b5b614d588a828b01614c49565b91505092959891949750929550565b5f60208284031215614d7c57614d7b614478565b5b5f614d8984828501614947565b91505092915050565b5f606082019050614da55f830186614447565b614db260208301856146f9565b614dbf6040830184614aca565b949350505050565b5f606082019050614dda5f8301866146f9565b614de760208301856146f9565b614df460408301846146f9565b949350505050565b614e05816148ab565b8114614e0f575f80fd5b50565b5f81359050614e2081614dfc565b92915050565b5f60208284031215614e3b57614e3a614478565b5b5f614e4884828501614e12565b91505092915050565b60058110614e5d575f80fd5b50565b5f81359050614e6e81614e51565b92915050565b5f8060408385031215614e8a57614e89614478565b5b5f614e9785828601614947565b9250506020614ea885828601614e60565b9150509250929050565b5f81519050919050565b5f82825260208201905092915050565b5f819050602082019050919050565b5f82825260208201905092915050565b5f614ef582614603565b614eff8185614edb565b9350614f0f81856020860161461d565b614f1881614488565b840191505092915050565b614f2c81614436565b82525050565b614f3b816148ab565b82525050565b5f81519050919050565b5f82825260208201905092915050565b5f614f6582614f41565b614f6f8185614f4b565b9350614f7f81856020860161461d565b614f8881614488565b840191505092915050565b5f608083015f8301518482035f860152614fad8282614eeb565b9150506020830151614fc26020860182614f23565b506040830151614fd56040860182614f32565b5060608301518482036060860152614fed8282614f5b565b9150508091505092915050565b5f6150058383614f93565b905092915050565b5f602082019050919050565b5f61502382614eb2565b61502d8185614ebc565b93508360208202850161503f85614ecc565b805f5b8581101561507a578484038952815161505b8582614ffa565b94506150668361500d565b925060208a01995050600181019050615042565b50829750879550505050505092915050565b5f6020820190508181035f8301526150a48184615019565b905092915050565b5f6020820190506150bf5f8301846146f9565b92915050565b5f805f606084860312156150dc576150db614478565b5b5f6150e986828701614947565b93505060206150fa86828701614e60565b925050604061510b868287016147c2565b9150509250925092565b5f6020820190508181035f83015261512d8184614645565b905092915050565b61513e816146f0565b82525050565b600581106151555761515461467d565b5b50565b5f81905061516582615144565b919050565b5f61517482615158565b9050919050565b6151848161516a565b82525050565b61519381614abf565b82525050565b60a082015f8201516151ad5f850182615135565b5060208201516151c06020850182615135565b5060408201516151d36040850182615135565b5060608201516151e6606085018261517b565b5060808201516151f9608085018261518a565b50505050565b5f60a0820190506152125f830184615199565b92915050565b600481106152295761522861467d565b5b50565b5f81905061523982615218565b919050565b5f6152488261522c565b9050919050565b6152588161523e565b82525050565b5f60e0820190506152715f83018a61524f565b61527e60208301896148bb565b61528b60408301886148bb565b61529860608301876146f9565b6152a560808301866146f9565b6152b260a08301856146f9565b6152bf60c08301846146f9565b98975050505050505050565b606082015f8201516152df5f85018261517b565b5060208201516152f26020850182615135565b506040820151615305604085018261518a565b50505050565b5f60608201905061531e5f8301846152cb565b92915050565b5f6020820190506153375f83018461524f565b92915050565b5f81519050919050565b5f82825260208201905092915050565b5f819050602082019050919050565b5f6153718383614f23565b60208301905092915050565b5f602082019050919050565b5f6153938261533d565b61539d8185615347565b93506153a883615357565b805f5b838110156153d85781516153bf8882615366565b97506153ca8361537d565b9250506001810190506153ab565b5085935050505092915050565b5f6020820190508181035f8301526153fd8184615389565b905092915050565b5f61540f82614417565b9050919050565b61541f81615405565b82525050565b5f6020820190506154385f830184615416565b92915050565b7f4e487b71000000000000000000000000000000000000000000000000000000005f52602260045260245ffd5b5f600282049050600182168061548257607f821691505b6020821081036154955761549461543e565b5b50919050565b5f81905092915050565b50565b5f6154b35f8361549b565b91506154be826154a5565b5f82019050919050565b5f6154d2826154a8565b9150819050919050565b5f6154e682614603565b6154f0818561549b565b935061550081856020860161461d565b80840191505092915050565b5f61551782846154dc565b915081905092915050565b5f819050815f5260205f209050919050565b5f81546155408161546b565b61554a818661549b565b9450600182165f81146155645760018114615579576155ab565b60ff19831686528115158202860193506155ab565b61558285615522565b5f5b838110156155a357815481890152600182019150602081019050615584565b838801955050505b50505092915050565b5f6155bf8284615534565b915081905092915050565b5f6020601f8301049050919050565b5f82821b905092915050565b5f600883026156147fffffffffffffffffffffffffffffffffffffffffffffffffffffffffffffffff826155d9565b61561e86836155d9565b95508019841693508086168417925050509392505050565b5f819050919050565b5f61565961565461564f846146f0565b615636565b6146f0565b9050919050565b5f819050919050565b6156728361563f565b61568661567e82615660565b8484546155e5565b825550505050565b5f90565b61569a61568e565b6156a5818484615669565b505050565b5b818110156156c8576156bd5f82615692565b6001810190506156ab565b5050565b601f82111561570d576156de81615522565b6156e7846155ca565b810160208510156156f6578190505b61570a615702856155ca565b8301826156aa565b50505b505050565b5f82821c905092915050565b5f61572d5f1984600802615712565b1980831691505092915050565b5f615745838361571e565b9150826002028217905092915050565b61575e82614603565b67ffffffffffffffff81111561577757615776614498565b5b615781825461546b565b61578c8282856156cc565b5f60209050601f8311600181146157bd575f84156157ab578287015190505b6157b5858261573a565b86555061581c565b601f1984166157cb86615522565b5f5b828110156157f2578489015182556001820191506020850194506020810190506157cd565b8683101561580f578489015161580b601f89168261571e565b8355505b6001600288020188555050505b505050505050565b5f6080820190506158375f8301876146f9565b6158446020830186614717565b6158516040830185614aca565b61585e6060830184614aca565b95945050505050565b7f4e487b71000000000000000000000000000000000000000000000000000000005f52603260045260245ffd5b5f6060820190508181035f8301526158ac8186614645565b90506158bb6020830185614447565b6158c860408301846148bb565b949350505050565b7f4e487b71000000000000000000000000000000000000000000000000000000005f52601160045260245ffd5b5f615907826146f0565b91507fffffffffffffffffffffffffffffffffffffffffffffffffffffffffffffffff8203615939576159386158d0565b5b600182019050919050565b5f61594e826146f0565b9150615959836146f0565b9250828201905080821115615971576159706158d0565b5b92915050565b5f819050815f5260205f209050919050565b601f8211156159ca5761599b81615977565b6159a4846155ca565b810160208510156159b3578190505b6159c76159bf856155ca565b8301826156aa565b50505b505050565b6159d882614f41565b67ffffffffffffffff8111156159f1576159f0614498565b5b6159fb825461546b565b615a06828285615989565b5f60209050601f831160018114615a37575f8415615a25578287015190505b615a2f858261573a565b865550615a96565b601f198416615a4586615977565b5f5b82811015615a6c57848901518255600182019150602085019450602081019050615a47565b86831015615a895784890151615a85601f89168261571e565b8355505b6001600288020188555050505b505050505050565b5f82825260208201905092915050565b5f615ab882614f41565b615ac28185615a9e565b9350615ad281856020860161461d565b615adb81614488565b840191505092915050565b5f604082019050615af95f8301856148bb565b8181036020830152615b0b8184615aae565b90509392505050565b5f615b1e82614708565b915063ffffffff8203615b3457615b336158d0565b5b600182019050919050565b5f604082019050615b525f8301856148bb565b615b5f60208301846148bb565b9392505050565b615b6f8161516a565b82525050565b5f604082019050615b885f830185614447565b615b956020830184615b66565b9392505050565b5f615ba6826146f0565b9150615bb1836146f0565b9250828203905081811115615bc957615bc86158d0565b5b92915050565b5f81905092915050565b5f615be45f83615bcf565b9150615bef826154a5565b5f82019050919050565b5f615c0382615bd9565b9150819050919050565b5f604082019050615c205f830185615b66565b615c2d60208301846146f9565b9392505050565b7f4e487b71000000000000000000000000000000000000000000000000000000005f52603160045260245ffd5b5f615c6b826146f0565b9150615c76836146f0565b9250828202615c84816146f0565b91508282048414831517615c9b57615c9a6158d0565b5b5092915050565b7f4e487b71000000000000000000000000000000000000000000000000000000005f52601260045260245ffd5b5f615cd9826146f0565b9150615ce4836146f0565b925082615cf457615cf3615ca2565b5b828204905092915050565b5f6040820190508181035f830152615d178185614645565b9050615d266020830184614aca565b9392505050565b5f81519050615d3b816147ac565b92915050565b5f805f805f60a08688031215615d5a57615d59614478565b5b5f615d6788828901615d2d565b9550506020615d7888828901615d2d565b9450506040615d8988828901615d2d565b9350506060615d9a88828901615d2d565b9250506080615dab88828901615d2d565b9150509295509295909350565b5f60208284031215615dcd57615dcc614478565b5b5f615dda84828501615d2d565b91505092915050565b5f81519050615df181614931565b92915050565b5f60208284031215615e0c57615e0b614478565b5b5f615e1984828501615de3565b91505092915050565b7f4e487b71000000000000000000000000000000000000000000000000000000005f52605160045260245ffdfea2646970667358221220f4e14eb9f77b7c2cdbbc0a3a182fa8e731ac091ac2956df440d9ac70578500b164736f6c63430008140033","linkReferences":{}},"methodIdentifiers":{"activeAgents(uint256)":"520d5e25","addAgent(address)":"84e79842","agentData(address)":"2f88d7ba","calculateWinnings(uint256,address)":"f15cc406","changeRoundState(uint8)":"5c51c5bc","claimWinnings(uint256)":"677bd9ff","core()":"f2f4eb26","creator()":"02d05d3f","currentAgentCount()":"4b961e76","currentRoundId()":"9cbe5efd","feeBalance()":"60b71d4e","gameMaster()":"bdf84ae7","getAgentPosition(uint256,address)":"7d4510d9","getAgents()":"eac3fda4","getHasClaimedWinnings(uint256,address)":"1dc5670d","getPvpActionFee(string)":"e8ce6c6e","getPvpStatuses(address)":"60691b0f","getRoundEndTime(uint256)":"12b19a13","getRoundStartTime(uint256)":"ddc6ac23","getRoundState(uint256)":"c642e7bf","getTotalBets(uint256,address)":"3d8e24f3","getUserBet(uint256,address)":"c03fb87c","initialize(address,address,address,address,address[],address[],uint256[])":"204068ff","invokePvpAction(address,string,bytes)":"1a086bd0","maxAgents()":"0a34d637","owner()":"8da5cb5b","placeBet(address,uint8,uint256)":"64e0fb27","pvpEnabled()":"995982ec","removeAgent(address)":"97a6278e","renounceOwnership()":"715018a6","resolveMarket()":"2b9b55b3","roundDuration()":"f7cb789a","rounds(uint256)":"8c65c81f","setCurrentRoundState(uint8)":"1602009a","startRound()":"55e3f086","submitAgentDecision(address,uint8)":"4d2a7941","supportedPvpActions(string)":"054bb186","supportedPvpVerbs(uint256)":"7592d541","token()":"fc0c546a","transferOwnership(address)":"f2fde38b","updateRoundDuration(uint40)":"4245d5f0","updateSupportedPvpActions(string,uint8,uint256,uint32)":"0cc8cbd4"},"id":36}